:020000040802F0
:10000000F8300120796F0208896F02088B6F0208AF
:100010008D6F02088F6F0208916F020800000000C8
:10002000000000000000000000000000936F0208C4
:10003000956F020800000000976F020845560208FD
:10004000AD6F0208B16F0208B56F0208B96F020800
:10005000BD6F0208C16F0208C56F0208C96F0208B0
:10006000CD6F0208D16F0208D56F0208D96F020860
:10007000DD6F0208E16F020851560208E56F0208C1
:10008000E96F0208ED6F0208F16F0208F56F0208D0
:10009000F96F0208FD6F020801700208057002087E
:1000A000097002080D70020811700208157002082C
:1000B000197002081D7002082170020825700208DC
:1000C000297002082D70020831700208357002088C
:1000D000397002083D70020841700208457002083C
:1000E000497002084D7002085170020855700208EC
:1000F000597002085D7002086170020857560208C4
:1001000065700208697002086D700208717002085B
:1001100075700208797002087D700208817002080B
:1001200085700208897002088D70020891700208BB
:1001300095700208997002089D700208A17002086B
:10014000A5700208A9700208AD700208B17002081B
:10015000B5700208B9700208BD700208C1700208CB
:10016000C5700208C9700208CD700208D17002087B
:10017000D5700208D9700208DD700208E17002082B
:10018000E5700208E9700208ED700208F1700208DB
:10019000F5700208F9700208FD700208017102088A
:1001A0000000000000000000057102082DE9FC417C
:1001B00004000D4690461E4603D17C2001F030F825
:1001C0000446089F7C21204601F051F82560C4F8C0
:1001D0000480A7600121DFF8840A02F082FB04F1A9
:1001E0005C050028A98812BF41F080014FF67F709E
:1001F0000140002E12BF41F004014FF6FB70014098
:10020000A980A06802F0AEFEA068012102F003F808
:10021000606802F0A7FEA98860680906890E01F0EF
:10022000010181F0010101F0F6FF206910B1012107
:1002300000F00AF961690191009121B101980090E3
:10024000012100F001F9A06910B1012100F0FCF8D2
:10025000E1690191009121B101980090012100F024
:10026000F3F8206A10B1012100F0EEF841F28D3070
:10027000A88140F2A461DFF8680CA1630021026844
:100280002263A971A970E97069702970287900F05A
:100290008800A88040F00200A8800620A8712046AF
:1002A000BDE8F6812DE9F04106460D46B06802F042
:1002B00059FE022DB06814BF0121002101F0ABFFEF
:1002C000706802F04FFE06F15C07B9887068090695
:1002D000890E01F0010181F0010101F09CFF06F19E
:1002E00010080524D8F8000020B1691E8941C90F03
:1002F00000F0AAF8641E08F10408F3D141F28D3031
:10030000B88140F2A461DFF8D80BB1630021026824
:1003100032632A003879B97100F08800B8800CD0B7
:1003200040F00100B880012D08BF0FF22C0002D070
:10033000022D02D110A001F0A4FBB88840F0020009
:10034000B8800021B879B97040F00600B871F97032
:1003500079703970BDE8F081455350207472616E38
:1003600073706172656E74206D6F6465202E2E2E21
:100370000D0A0D0A000000004553502070726F678F
:1003800072616D6D696E67206D6F6465202E2E2E13
:100390000D0A0D0A0000000000F110020521DFF82F
:1003A000403B106818B1D3F800C0C0F828C0121D37
:1003B000491EF6D1704700F110030120052200FA12
:1003C00001F1186800281CBF8078084204D11B1D69
:1003D000521EF6D10120704700207047F8B515462F
:1003E00006460124B27804FA01F000EA020CBCF1DE
:1003F0000107BF41FF43FF0F9F421BD043B1104392
:10040000B07004FA05F5F068B0F8602015430DE00F
:1004100022EA0000B070F068FFF7CDFF40B1F0684D
:10042000B0F8601004FA05F521EA0505A0F860505F
:100430000120F2BD0020F2BD0B4604220321CDE7CE
:100440000B4605220021C9E738B50D4604460021B8
:10045000FFF7F6FF40B1A07800F0EF00A070214652
:1004600004F1340001F047FCDFF8740A0168A1626E
:1004700065B1E07F012818BF022807D1206A28B1A2
:100480000123032202212046FFF7A8FFA06801F004
:1004900053FC6068BDE8324001F04EBCF8B504463C
:1004A00004F16006ADF5826D3078010640F1C6803A
:1004B00004F15D056878032818D1A878002800F0B9
:1004C000BA800021009100232068E568816868688F
:1004D0004FF0FF3201F016FE002100910023E0688A
:1004E0002568816868684FF0FF32A2E0287801280B
:1004F0002DD1206C052812D204EB8000006970B168
:1005000003A90091002341682068626C406801F0F3
:10051000F9FDC8B9616C0398091A61648BE003A9FD
:10052000009100232068626C4068002101F0FBFC10
:1005300018B1616C0398091A6164606C002840F07E
:100540007A800021297076E00020287073E003A9EA
:100550004FF4FA72029101924FF4806296F8020011
:100560003BA3009004A92068406801F018FD0746ED
:10057000801C05285FD8DFE800F011035E18184FD3
:1005800003990FF6C43030A201F0A1FA039904A830
:1005900001F070FA2BA001F074FA4CE003990FF609
:1005A000B4302AA201F093FA45E0308881060DD4D8
:1005B00003990FF6B03024A201F089FA039904A838
:1005C00001F058FA1FA001F05CFA14E0C00512D542
:1005D00000210091039AE06A0FF688311AA301F016
:1005E0004AFC039AE06A002304A901F0C9FBE06A0F
:1005F00014A101F00FFC0398002804DD024604A9B1
:10060000204600F075F8012F15D100202870B17830
:1006100041F00401B1700EE0B07800F0F700B07066
:1006200000210091002320688168606AB6F90620E5
:10063000806801F067FD204600F03EFA0DF5806D00
:1006400005B0F0BD0D0A00005D2020005D0D0A0020
:10065000020A0D013A013E002DE9F8431D46032D23
:1006600004468946904614D12069002600281EBF02
:1006700001266069002815D0A169022600291EBF45
:100680000326E06900280DD0216A042651B100F04C
:100690007FBC042604F1200151F8040910B1761E34
:1006A000FAD5F4E73C2000F0BBFD074604EB8600DA
:1006B0003C210761384600F0DAFD4146204601F052
:1006C00028FB78604946204601F023FBB860032DE3
:1006D000B8780CBF40F0020000F0FD00B870BE77A3
:1006E000FD77FC603846BDE8F283C16070470000CA
:1006F0002DE9F8418BB004460020019004F15C051F
:100700000E4668780028174640F03481002F5CDDE3
:1007100030782B2859D1042F04DD30792C2808BFDC
:10072000042100D039460020009004ABDFF8D40942
:100730004268304601F010F8002800F0B9810498B2
:100740006870049901293CD10520019004F140030F
:100750006FF001006064206401AA0020E064A064DE
:1007600039464FF0FF300090304601F035F900284F
:1007700000F09E814FF0FF30009004F1440301AA85
:100780003946304601F028F9002800F09181002018
:10079000009004F1480301AA3946304601F043F9BC
:1007A000002800F085810020009002AB01AA3946A4
:1007B000304601F011F9002800F07A810298E064D7
:1007C00076E1A87900F0FB003CE0022F15DB7078A1
:1007D0002C2812D14FF0FF31009102AB01AA39460B
:1007E000304601F0F9F840B14FF0FF30009007AB10
:1007F00001AA3946304601F0EFF80020009004AB22
:10080000DFF8001901980A68391A301800F0A4FFBF
:10081000002800F04D810498082800F24981DFE8A3
:1008200010F01B0009001D007B009B0013001B0043
:10083000470125002878022818BF03280CD1A87981
:1008400040F00800A87133E1A06A28B1817801F076
:10085000EF0181700020A06200215BE0A8780028F1
:1008600008D1A88840F04000A88021E1A87800289D
:1008700000F01E81A06802F075FBA068012101F064
:10088000CAFC606802F06EFBA98860680906890EE0
:1008900001F0010181F0010101F0BDFC206910B1FE
:1008A0000121FFF7D1FD61690891009121B10898FC
:1008B00000900121FFF7C8FDA06910B10121FFF7E9
:1008C000C3FDE1690891009121B1089800900121D0
:1008D000FFF7BAFD206A10B10121FFF7B5FD41F223
:1008E0008D30A88140F2A461DFF8F405A1630021F6
:1008F00002682263A971A970E9706970287900F013
:100900008800A880A88840F00200A880A87940F05C
:100910000600A8712970CBE00298052880F0C880F5
:1009200004EB80000469002C00F0C280DFF8B00501
:1009300001686268516101212046FFF781FD0028AE
:1009400000F0B680A07800F0EF00A070214604F11E
:100950002C0001F0D0F9ABE00298052880F0A880C7
:1009600004EB80000069002800F0A2800121FFF75D
:100970006BFD9DE00D2802D0152872D098E006A8E6
:10098000009003AB01AA3946304601F019F800285F
:1009900000F08E80039805A9009106EB000803ABD8
:1009A00001AA3946304601F00BF8002800F080809B
:1009B0004FF0FF30009002AB01AA3946304601F0FB
:1009C0000BF8002874D04FF0FF30009007AB01AA5D
:1009D0003946304601F000F8002869D04FF0FF306A
:1009E00000900AAB01AA3946304600F0F5FF002816
:1009F0005ED04FF0FF30009009AB01AA3946304677
:100A000000F0EAFF002853D00322414691A000F0F5
:100A10006DFC90B10398059A31180FF2507000F0F8
:100A200065FC50B10798032807D1E878401CE870AE
:100A30000FF2447001F025F83AE00698062806DD2A
:100A4000404400220621801F00F0E7FDA06582A33C
:100A5000029868720422A16D0FF22C7001F070F8F8
:100A600026E005A8009003AB01AA3946304600F005
:100A7000A7FFE8B10398059A31180FF2207000F033
:100A800035FC20B10020009004F150030BE00398E6
:100A9000059A31180FF20C7000F028FC40B10020CC
:100AA000009004F1540301AA3946304600F0BBFF20
:100AB0000CB0BDE8F08100007CB5044604F15C0593
:100AC0002878002804BF6878002840F0C180A87802
:100AD000032800F2BD80DFE800F0022AB342297942
:100AE000480620D4A26BDFF8F833186804F130010F
:100AF00000F0B4FB002800F0AB804FF42F70A0632F
:100B0000A98881F00201A9800906490E606801F0F8
:100B1000010101F080FB2879C10740F19980032091
:100B2000A87000212CE00120A870002128E0E878BE
:100B3000092808D2421C0FF2DC61EA70095C2046E9
:100B4000BDE87C408CE0002104F16C0001F0D3F89A
:100B50002046FFF721FC0220A870002110E0E87871
:100B6000DFF87C6370B9012104F1740001F0C3F86F
:100B70003068E1684A685061E06BA063E978491C1D
:100B8000E97073BDE0684168A26B4969306800F0A4
:100B90005FFB00285CD0002104F1740001F0ABF889
:100BA0000FF2086000F06DFFA06802F0DBF9A068AA
:100BB000012101F030FB606802F0D4F9A988606877
:100BC0000906890E01F0010181F0010101F023FB0A
:100BD000206910B10121FFF737FC61690191009193
:100BE00021B1019800900121FFF72EFCA06910B1FE
:100BF0000121FFF729FCE1690191009121B10198E0
:100C000000900121FFF720FC206A10B10121FFF7BD
:100C10001BFC41F28D30A88140F2A461A163002148
:100C200030682063A971A970E9706970297028790A
:100C300000F0880040F00200A8800620A87173BD73
:100C4000204600F04FF918B92046BDE87640A2E1F1
:100C500073BD000048575F000D0A000040110208F4
:100C60002DE9F847054605F15C0687B00C4631785A
:100C700019B10FF2485000F004FFDFF88804416812
:100C80004FEAD41A04F07F04002306AA204600F09D
:100C900090FD002800F020812868D0F808906F6A45
:100CA000069A0020019000900FF2C8284346B2A196
:100CB000484601F0B4F8BAF1000F03D00023012236
:100CC000AEA1F1E0052C18BF152C00F0FB8000232D
:100CD0000122ABA1484601F053F8A01E0E2800F2F5
:100CE000F180DFE800F03838EFEF0C10326298A1A5
:100CF000EF14EFEF080000230122A2A1D4E00023AB
:100D00000122A1A1D0E000230122A0A1CCE000207B
:100D1000C6A1019000910323AA6D0FF2B04148468D
:100D200001F0B6F80020012101900091C0A74346D0
:100D30000FF238423946484601F071F80020009021
:100D40003946727A0FF28C436AE0002000904346E5
:100D5000B289B8A164E0B87840F01000B870AF6212
:100D6000002000904346BA7F4146484601F083F890
:100D7000002000900FF2B82AB6F90A2043465146E7
:100D8000484601F078F8F87F012840F09B80002168
:100D90000091A6A33A69B6A1484601F09EF800204A
:100DA000009043463A8B51463AE0F87F012818BF3D
:100DB000022840F0878000200090ADA3BA7F414612
:100DC000484601F058F8F87F012803D10023032298
:100DD000A8A102E000230322A7A1484600F0D0FF0B
:100DE0000020009091A33A69C1A1484601F075F82E
:100DF000002000900FF2382A3A8B4346514648466D
:100E000001F039F8F87F01285CD100210091B9A3E5
:100E10007A8B514604E0002000904346BA7F414659
:100E2000484601F028F84DE003AB05AA4FF0FF312A
:100E30000FF2A83001F04DFD90B1002301227BA1FB
:100E4000484600F09DFF039A05990023484600F0AC
:100E500097FF00230222A8A1484600F091FF09E075
:100E600001210190009172A30FF278324146484669
:100E700000F0D5FF02AB04AA4FF0FF310FF26C3047
:100E800001F027FDA0B10FF2A41800230122414672
:100E9000484600F075FF029A04990023484600F086
:100EA0006FFF002301224146484600F069FF09E038
:100EB00001210190009143460FF2383241464846E5
:100EC00000F0ADFF012302228CA1484600F058FF3C
:100ED0008D4834700168296308B0BDE8F0870000D0
:100EE000DC0001202DE9F843804608F12406B18F8B
:100EF000C8060CD508F110020520146824B1A378A7
:100F000003F00903092B1CD0121D401EF5D1080760
:100F100016D508F110070524DFF8EC913D6865B19E
:100F2000A87800F00500042807D12A6A2AB1A96A26
:100F3000D9F8000000F08CF978B93F1D641EEDD19E
:100F400026E034600A214046FFF78AFE0021204651
:100F5000FFF772FA0120BDE8F283356009214046AF
:100F6000FFF77EFE0023032202212846FFF736FA10
:100F7000F0E7000000000000415400003F000000C6
:100F80003D00000030000000330000003100000090
:100F90000020BDE8F283F8B5064606F124050527D2
:100FA00095F83C0081063FD596F86300401C86F812
:100FB00063007F1EC0B2052804BF002086F86300CE
:100FC00096F86300052823D206EB80000469FCB183
:100FD000A078C1071CD5A06800F0B3FE01B20129BA
:100FE0001ADA626AA2B16068474B00F1140118680E
:100FF00000F034F960B1A078010709D440F008008E
:10100000A070E068B0F8601041F01001A0F8601026
:1010100038B20128C8DAF1BD2C60A6F866000221BA
:101020003046BDE8F4401BE6F1BD000022000000A0
:101030002C000000312C000070B50D4605F1210692
:101040000446307890B1296928682223272200F0CD
:1010500002FC20682A692968806800F0D9FE2068AF
:10106000806826A100F0D6FE0120707070BD0000DF
:101070002C2200005544500054435000F8B505465A
:101080000E4600BF5FA000F0FCFC06F12104002723
:10109000207850B13169032907D202280F4601DBBD
:1010A000706908B944F62060E8630022F9B2284666
:1010B000FFF7F8F801206070F1BD000001F11003A6
:1010C000597C21B11A68012A88BF002100D801216A
:1010D0009974597C21B1196819A0012201F01BBC37
:1010E000B0F8601006A20906C90F104600F0EFBC68
:1010F000222C22002C320000222C00000D0A0000BD
:101100000000000000000020DC00012038B50C4683
:1011100004F121052878022811D12369D4F8002090
:101120002EA04FF0FF3101F043FB6369D4F8042097
:101130002EA04FF0FF3101F03BFB0120687031BD64
:10114000574D4F44450000004553502054494D45EC
:1011500052205B0045535020494E46554C4C205B75
:1011600000000000455350205B000000686F75735D
:101170006577656C6C3138005374642041502050A1
:101180006172616D210D0A004E6F6E2073746420D0
:10119000415020506172616D3A2000005354414922
:1011A00050000000415049500000000045535020BD
:1011B000726573746F72650D0A000000455350200C
:1011C000697320427573790D0A0000002248575F49
:1011D000000000002C332C342C30000057534949B8
:1011E000440000006C6573736F6E000057535057D6
:1011F0004400000061726D616765646F6E3139375C
:10120000310000004553502052657365742121213F
:101210000D0A0000050710060B8D0D1508000000D3
:10122000DFF8BC140A688018C01C800880000860C1
:10123000DFF8B00410447047DFF8A404006870477A
:10124000DFF8A41408707047DFF89C04007870473A
:10125000401A90428041C043C00F70470B68C31AC8
:10126000934202D308600120704700207047012993
:10127000A8BF02F089B97047884218BF002A09D078
:10128000884208D3002A05DD10F8013B01F8013B34
:10129000521EF9D17047002A10441144FADD10F8AB
:1012A000013D01F8013D521EF9D1704730B4002BC9
:1012B0000DDD002902DC0AD5047874B110F8014B69
:1012C00012F8015B5B1E491EAC42F0D082E200299D
:1012D00003D0FBD500780028F8D1029818B1591E28
:1012E0008941C90F0170012030BC704780B5134699
:1012F000002200920A464FF0FF31FFF7D7FF02BDF0
:1013000030B403464FF0FF30401C904207DA53F8E8
:10131000044B51F8045BAC42F6D030BC704730BC93
:101320000AE003464FF0FF30401C904204DA53F8C5
:1013300004CB8C45F8D070474FF0FF307047F0B4C5
:10134000DFF8F84794E8E01084B06B46511883E862
:10135000E010012A07DB00F00F0400091D5D01F811
:10136000015D521EF7D104B0F0BC7047F0B4DFF855
:10137000CC4794E8E01084B003466846541880E8EF
:10138000E010012A09DB104603F00F061B091DF8C7
:10139000067004F8017D401EF6D10020885404B088
:1013A000F0BC084670472DE9F0470446084684B073
:1013B0000746DFF88857012A1EDB95E8004714F836
:1013C000016BEC4606F00F018CE8004707F1020CB8
:1013D0001DF801100CF8011D3609521E1DF806609B
:1013E0000CF8016DBF1C002BE5D0012AA4BF2026FC
:1013F00007F8016BE1DADEE70021397004B0BDE8DF
:10140000F087F0B4002401E02D011570002917DDEC
:1014100010F8015B491EA5F130060A2E08D2303DB6
:10142000CE07F1D417783D4302F8015B641CEDE769
:10143000A5F14106062E38BF373DF1D300F066BC5A
:101440001C600120F0BC70470120BDE8F08170B540
:101450000D46002D0446164602D500F011FA054649
:101460006D1E2C4406EB85063BD414F801096D1E55
:1014700080282FDBBF2804DD5030C0B200F580602B
:1014800028E0A82808BF40F2014023D0B82808BFB0
:1014900040F251401ED0AF2808BF40F2074019D09B
:1014A000BF2808BF40F2574014D0AA2808BF40F216
:1014B00004400FD0AB2808BF40F254400AD0A12806
:1014C00008BF40F20E4005D0A2280CBF40F25E409B
:1014D00040F2874004223146FFF731FF361F002DCE
:1014E000C3D5002070BD11F1010F01D102780AB9F6
:1014F000491E05DB10F8012B802AF4DB0120704720
:10150000002070478142C8BF014608467047F0B4CA
:101510000023002A21DD002806D50123521E08BF22
:1015200000201BD0491C40424C1E144400E0641EA5
:10153000DFF8D45780FB0565AD1005EBD57505EBDD
:101540008507A0EB4700303020708C422846EED152
:101550001BB12D20521C01F8010C1046F0BC704745
:10156000F8B514460025002C25DD002806D50125F8
:10157000641E22D02D2201F8012B40420A19531E6D
:1015800002E08B4219D05B1EDFF87C2780FB0262F1
:10159000921002EBD27202EB8207A0EB47003030D0
:1015A00018701000EDD1E41A0C1922461846FFF706
:1015B00063FE05B1641C2046F2BD0020F2BD10B5EB
:1015C0000C46FFF7A4FF03E010B50C46FFF7C8FF79
:1015D00000212154204610BD30B40023022917DD1C
:1015E0004478782C04BF0578302D03D130BC891E97
:1015F000801C12E00478303C0A2C28BF10460AD226
:1016000003EB830410F8013B03EB4403303B491E1A
:101610000029EFDC184630BC7047034630B4002088
:10162000002914D011DD13F8014BA4F130050A2D67
:1016300038BF303C04D3A4F14105062D07D2373C16
:101640000001491E50FA84F0EDD130BC704730BC27
:10165000104670472DE9F047002403274FF0180883
:1016600081468A46032629FA08F000250AEB040180
:1016700000F0FF0005D52D220125022601F8012BDF
:1016800040428A19531E02E08B4218D05B1EDFF8DD
:10169000782680FB02C2921002EBD27202EB820E1D
:1016A000A0EB4E00303018701000EDD1F61A8E19F4
:1016B00032461846FFF7E0FD05B1761C3419641C6C
:1016C000002F0AEB0401CCBF2E2000207F1E01F862
:1016D000010CA8F10808C5D55046BDE8F087000008
:1016E000D800012040000020F60001202DE9F0473D
:1016F0000025002906469246A94602DC00F0C0F803
:101700000146072925DB307830380A2821D2042405
:10171000884645451DDA0023A8EB050271192E20E5
:1017200000F069F807004CBF47462F184FF0FF3212
:10173000791B7019FFF750FFB0F5807F09D27D1C2F
:10174000641E00EB0929E4D1CAF800900120BDE82D
:10175000F0870020BDE8F0872DE9F84381468846F0
:1017600015461C460027002603E0A85D801C86194C
:101770007F1CAB5DD3B118F1010F18BF9845F4D1B0
:101780000022009205EB060C4A464FF0FF310CF1A7
:101790000100FFF78BFD0028E7D004B1276008980F
:1017A00008B1A95D01600120BDE8F2830020BDE819
:1017B000F28330B4002403E00D5DAD1C2C19401EF3
:1017C000002807D4F8D10819401C10600BB1095D3E
:1017D000196088E530BC00207047002203E08B5C74
:1017E0009B1C9A18401E002803D4F8D18818401C6E
:1017F00070470020704770B40025002A04460FDDB2
:1018000011F8016B521EB4420CBF0120002093EA74
:10181000000F11D16D1C002AF2DC70BC8CE56D1C30
:1018200008780028F9D011F8012B94420CBF012050
:10183000002093EA000FF2D0284670BC704710B524
:101840001C460023FFF7D7FF002802D420600120A8
:1018500010BD002010BDF8B504460D4616461F46C3
:1018600003E02754401C04442D1A002D07DD0023FB
:101870002A4621463046FFF7BEFF0028F1D5F1BDCC
:101880000146002000E0401C11F8012B002AFAD18B
:101890007047F0B40546002001E0401C6D1C2C7818
:1018A0004CB1904207D00E463378002BF5D016F895
:1018B000017BBC42F8D1F0BC704738B504460D46F8
:1018C000FFF7DEFF421C29462046FFF7D5FC2846DD
:1018D00032BD70B50D46012D0446164602DAFFF7FB
:1018E000CFFF05462A4631462046FFF7C5FC0020BB
:1018F0007055304670BD30B4002A07DC0B4600221C
:1019000000E0521C13F8014B002CFAD18B1804E0B4
:1019100010F8015B03F8015B521C01780029F7D134
:1019200000201870104630BC704701E0521E0A605B
:101930000A68012A07DB831813F8013C202B1CBF1F
:101940000D2B0A2BF2D07047F8B41F68059E044691
:101950000D460021D01B3D4403E07F1C222437604C
:101960006D1C002829DD401E59B92F78202FF7D093
:10197000171A7F1E3760012195F800C0BCF1220FB5
:10198000EBD02F78A74203D0222CE9D00028E7D152
:10199000121A30680699101A401E08601A602A78D8
:1019A000A24202D00868401C0860222C02D11868AC
:1019B000401C18600120F2BC7047F2BC0020704748
:1019C0001CB500931346049C01940A4601462C2042
:1019D000FFE7FFF7B9FF16BD2DE9F8411446804631
:1019E00085B020680C9E02901D4603A8019004AFAC
:1019F0000A46009702AB41462C20FFF7A5FF68B1CD
:101A00000498039932464044FFF7E6FDB04228604F
:101A100005D00298206006B0FFF716BD2E600020AA
:101A200006B0BDE8F081F8B5144684B007462568D5
:101A300002A8019003AA00921E460A462346394690
:101A40002C20FFF781FF70B1039802993246384489
:101A5000FFF74CFE00281FBF0A98256031688142BD
:101A600018BF012000D1002005B0F0BDDFF84817F5
:101A700008607047DFF840271268002A18BF104737
:101A80007047DFF834170A68002A1CBF4FF0FF3197
:101A900010477047F8B50D4616461C46DFF8187714
:101AA00020B13A6892B14FF0FF3190473A686AB17D
:101AB000314628469047002C1CBF3A68002A05D0C2
:101AC0002046BDE8F8404FF0FF311047F1BDF0B5BA
:101AD0000C27002683B00029044615466B4607D51F
:101AE0002D2001260B278DF800000DF1010349423E
:101AF000D81901E098421ED0834A81FB02C292109D
:101B000002EBD27202EB820EA1EB4E01303100F8F3
:101B1000011D1100EED13F1ADF193A461946FFF7B1
:101B2000ABFB06B17F1C2B463A4669462046FFF7C1
:101B3000B1FF03B0F0BD0027F5E70000F82102086F
:101B400030B5044683B008461D4652006946FFF78B
:101B50000DFC01462B464FF0FF322046FFF79AFF5F
:101B600003B030BD2DE9F84314462A2CC8BF2A24FF
:101B7000A4B00E4600281D461EBFDFF83C160A68BA
:101B8000002A1CBF4FF0FF31904704A90FF2686391
:101B9000012C1BDB93E8005316F8010B6F4600F095
:101BA0000F0287E800538F1C1DF8022007F8012D53
:101BB0000009641E1DF8000007F8010D891C012CA6
:101BC000A4BF202001F8010BE4DAE1E7DFF8E845E3
:101BD00000220A70226862B14FF0FF3104A89047DA
:101BE000002D1CBF2268002A03D04FF0FF31284689
:101BF000904725B0BDE8F083F8B504000D461646C1
:101C00001F460AD1DFF8B405DFF8B435016801F1E9
:101C100023029208920002605C182021204601F005
:101C2000D3FCA561E66167602046F2BD002800D1C3
:101C3000704710B44C1EA44183B0E40F934201815D
:101C40008481C281038209D300224282826992B1D7
:101C5000B0F90A3003B010BC594010470499838290
:101C60000C000CBF4FF6FF71491C4182DFF8541580
:101C70000B689A1A026003B010BC704710B5044696
:101C8000608AA0B3DFF83C1508682268A18A821A2E
:101C90008A422CD32060B4F90C00B4F90820411E0C
:101CA0008941C90FA18109B2208A91420FD1A08236
:101CB0004FF6FF71608A88420ED0401E608280B26B
:101CC00040B9E26932B161682046904702E0E2899A
:101CD000101AA082608A50B1A26942B1B4F90C1006
:101CE000B4F90A0041402046BDE81040104710BD3D
:101CF00001604260704780B502681AB14068904741
:101D0000012002BD002002BD67666666F0BC0020AF
:101D1000704710B50C462046FFF782FADFF89C1496
:101D20000A6802F12B039B089B000B60DFF89014FC
:101D300088508818446010BD00210161C160816035
:101D4000704701468868CA68904201DB801A704774
:101D500012E001468868CA68904201DA101A70479A
:101D60004968081A1018401E7047014688680A69B9
:101D7000904201DB801A704749688A1A80187047C0
:101D80002DE9F8430D0004469146984632D0B9F14A
:101D9000000F03D52846FFF773FD81466768A168E9
:101DA000E668E9B1B1421BD12046FFF7C5FF002626
:101DB00000217A1AB618761E20684E45C8BF4E46D6
:101DC0000844A84210D03046002811DD236815F8D9
:101DD000012B5A54401E491CB942F5D10021F3E7AA
:101DE000B142E6DA761AE7E77118B942A8BFC91B13
:101DF000A16000E00026B8F1000F04D0214604F1F4
:101E00002000FFF778FF3046BDE8F2830123B7E7F3
:101E10000023B5E70123FFE74FF0FF32B0E72DE9DC
:101E2000F041079D074690461C4621B12B464FF0D6
:101E3000FF32FFF7A5FF069E300005D02B4601229A
:101E4000AFA13846FFF79CFF2B464FF0FF324146CB
:101E50003846FFF795FF2EB12B460122A8A1384640
:101E6000FFF78EFF2CB12B4621463846BDE8F041E6
:101E7000D2E7BDE8F0812DE9F84183B007460D4671
:101E800010460A9E1C460B226946FFF79DFB2FE079
:101E9000F0B583B006460C461046099D5A006946C7
:101EA000FFF764FA074634B12B464FF0FF32214664
:101EB0003046FFF765FF089C2B464FF0FF3239464E
:101EC0003046FFF75DFF34B12B464FF0FF3221461D
:101ED0003046FFF755FF03B0F0BD2DE9F04184B067
:101EE00007460D460A9E1C4669461046FFF7B2FBA0
:101EF000804635B133464FF0FF3229463846FFF76A
:101F00003FFF33464FF0FF3241463846FFF738FF78
:101F100034B133464FF0FF3221463846FFF730FFE9
:101F200004B0BDE8F081F8B505460C4617461E46DC
:101F3000294605F11800FFF7DEFEA868E968884227
:101F40002BD06A68AEBF401A531AC0183B4687426E
:101F5000C8BF0346002B20DDBB4218BF002E05D0B2
:101F6000984F3F686869381AB04216D306980360E4
:101F70005CB12868465C5B1E491C914208BF002189
:101F8000002B04F8016BF4DC03E059189142A8BF60
:101F9000891AE96029610120F2BD0020F2BD2DE916
:101FA000F74F014684B01E461830FFF7A4FE049890
:101FB00083680269C1680498019100250024D0F863
:101FC00004C09A425DD09342AEBF9B1AACEB0200B4
:101FD0001B1802938A42049FD7F800E0AEBF531A41
:101FE000ACEB0103D318109949088DF84010304626
:101FF0000299002942DD4E1E02968DF8004090465F
:102000009DF8406000274FF001095B1C521C002125
:10201000344602E0640809F10109250022D0FDB22E
:10202000465D8DF800607D1C77195FEAC47AF1D5B2
:10203000B342EFDB04E0B8F1010848BFE0446D1C97
:102040005FFA85FB1EF808A010F80BB0DA4507D13F
:10205000761E5FFA86FABAF1000FECD15FFA89F1C9
:102060000029D7D09DF8004062450D4608BF0022E8
:1020700025B906998B42BBD16FF001050498026126
:1020800001E04FF0FF330198904235D0002D1AD176
:10209000002B05D58242AEBF131AACEB00015318DA
:1020A0000698834203DB6FF0010503460CE01198AC
:1020B00010B344490A68049C6169521A82421BD3D6
:1020C0004FF0FF3500E000D50024129808B1191B2D
:1020D0000160059880B10499019A0AE05B1EA34251
:1020E00003DB0F68BE5C00F8016B521C624508BF41
:1020F0000022002BF2DCCA60284607B0BDE8F08F52
:10210000220000002DE9F04706460F469246994608
:10211000314606F11800FFF7EEFD5FEA09004FF0C7
:102120000108304602D0FFF720FE01E0FFF709FE6C
:102130000500089C04D10CB100202060FFF709BB0A
:102140001AF1010F08BFAA465545ACBF55464FF0DE
:1021500000083846FFF7FDFDA842BCBF05464FF01A
:10216000000804B12560002D23DD30683968F2686D
:102170007368BC68D7F804C010F802E001F804E006
:102180006D1E521C641C644508BF00249A4208BF9F
:102190000022002DF0DC0B48BC60B9F1000F016893
:1021A0007961F26008BF3261394607F12000FFF71C
:1021B000A2FD4046BDE8F087D4000120D8000120F0
:1021C00040000020DC00012070B504000D461646DA
:1021D00002D11020B04704460021A1712846B04723
:1021E0002060A5806089A081204670BD0021C1814A
:1021F0008181418101817047303132333435363746
:102200003839414243444546DFF8B4281368036037
:1022100050680860704700B104E07047006A00B180
:1022200000E070474A1E924181680068D243D20F95
:1022300089B201F021BA38B504000D4603D124203B
:10224000FEF7EEFF044600230022DFF8281920469F
:10225000FFF7D2FC284600F085FE2562204632BDFD
:1022600000F0F2BF00F057BF70B504000D461646EF
:1022700003D11820FEF7D4FF044618212046FEF7AC
:10228000F6FFE560666120466989FFF742FD606000
:102290002246DFF8E4181830FFF72AFD2989204686
:1022A000FFF737FDA0602246DFF8D0182030FFF797
:1022B0001FFD204600F070FEA07840F00100A070E5
:1022C000204670BD70B5DFF8B8582E680446FFE7A9
:1022D000286822463146FEF7BBFF0028F8D070BDC3
:1022E00076B5002A0C461D462CD422462946FEF718
:1022F000C3FF0198069E202802DA2855641C1EE0C0
:10230000B0F5807F05DA28552A1920215170A41CC8
:1023100015E0B0F5803F09DA0222291901A8FEF77D
:10232000ABFF291960208870E41C08E004222919F9
:1023300001A8FEF7A1FF29197F200871641D3460F0
:10234000012076BD002076BD80B50021ADF80010DB
:10235000400802226946400001F015F801BDF6B5BB
:1023600012F1010F8BB005460E461C4603D13046D4
:10237000FFF786FA0C900CA8009003AB0C9922464C
:102380003046FFF7ADFF00B103AE0C9F0DF1060321
:1023900001AA02A9284601F033FBC0B39DF804004E
:1023A000BDF808102C186D180DF1060301AA02A93A
:1023B000204601F025FB00281FBF9DF804002018CF
:1023C00000780028E2D0FE2804D19DF80400401CCB
:1023D0008DF804000DF1050000903946BDF8083075
:1023E0009DF804001B1A22183046FEF75FFF0028F4
:1023F0001CBF9DF805000028C8D00FF67400FFF739
:1024000040FB9DF804002018FFF79EFF01200DB04F
:10241000F0BD18B41346DFF8A82614682CB10A469C
:102420000146204601B010BC99E712BC002070475D
:102430002DE9FB4F94B000210546089192460FF616
:102440005000FFF71EFB169810F1010F03D1504604
:10245000FFF716FA1690209E16995046FFF70AFBD2
:10246000002E04D4CFA23146CFA0FFF730FB099550
:10247000CEA0FFF706FB16A80090DDF82490169971
:1024800013AB32465046FFF72BFF08B10DF14C0A53
:10249000169EDDF884B0DDF888800DF10D030DF196
:1024A00006020DF10E01484601F0AAFA002860D09C
:1024B0009DF80600BDF80E1009EB000589440DF1EA
:1024C0000D030DF106020DF10E01284601F098FAF8
:1024D00000281FBF9DF80600281800780028DCD0CF
:1024E000FE2804D19DF80600401C8DF8060003A8C4
:1024F00000903146BDF80E309DF806001B1A2A18D0
:102500005046FEF7D3FE00281CBF9DF80C000028A3
:10251000C3D09DF80600BDF80E608DF80700751950
:102520000DF10A0301AA02A9284601F069FAB8B11F
:102530000DF10B0000904146BDF808309DF80400F5
:102540001B1A2A185846FEF7B1FE00281CBF9DF83A
:102550000B00002804D00FF25470FFF792FA07E145
:102560009DF80700AD1B2818089002E0BDF8080090
:1025700081440DF10A030DF1050202A9484601F05C
:102580003FFA0028F2D19DF80A00002840F0F080C0
:1025900016980DF1070207A901F07BFAADF80800C3
:1025A00001AA06A9404601F074FABDF80810801D82
:1025B0004018ADF808000DF10502BDF8080005A9A6
:1025C00001F067FA9DF805309DF807609DF8072037
:1025D00009F00105184605EB090C8444CCF1020111
:1025E0008E1B06F001061699B2188A18B8F1010F71
:1025F00094440DDDB8F1040FACBF042102219DF815
:102600000420A1EB0C04A41A491E0C40E4B200E023
:1026100000249DF80410A4440CEB010747447F1CE0
:102620007F087F00A7EB090C022BACEB050C0CBF5D
:10263000012300230DF1050205A9ACEB000001F018
:102640000FFA0999159841188F4204D30FF274605C
:10265000FFF717FA8CE0DFF80006049000271DB1A1
:10266000FD208DF828002F460AA89DF80520C119E5
:1026700005A8FEF701FE9DF80500C719FFB236B1A7
:102680000AA93246C91904A8FEF7F6FDF7190AA8E7
:10269000F9B29DF80720014407A8FEF7EDFD9DF86B
:1026A0000700169A3E180AA9F3B219445046FEF7DD
:1026B000E3FD16988619F6B234B10AA922463144D0
:1026C00004A8FEF7D9FDA6190AA8F1B29DF80420C6
:1026D000014406A8FEF7D0FD9DF804008619F6B265
:1026E000751BE90708D59BF800000AAA4FF0010AFC
:1026F0009055761CF6B201E04FF0000A089830B110
:102700000FF2D850FFF7BDF90898FFF71DFE0FF242
:10271000EC50FFF7B6F932460AA9484600F033FEFE
:10272000B144A8EB0A0404EB0900C10746BF621ECE
:10273000ADF80820ADF80840BDF8080028B1024601
:102740000BEB0A01484600F01EFEBDF80810A1423E
:102750000CDA8A4409EB01001BF80A1041F47D41B0
:10276000ADF80810022202A900F00DFE012000E0E1
:10277000002017B0BDE8F08F78B5DFF844532C681F
:1027800083B05CB1019300920B46089E6968029683
:1027900002462046FFF74CFE04B070BD002004B096
:1027A00070BD0000000000003A2000000D0A00008B
:1027B00080B5009313464FF0FF32FFF7DDFF02BDF7
:1027C000F4B512F1010F8CB005460E461C4603D13C
:1027D0003046FFF755F80C900CA8009004AB0C990C
:1027E00022463046FFF77CFD00B104AE0C9F2868FE
:1027F00002AB01AA0DF10A0101F002F900284FD045
:1028000028689DF80410BDF80A2044188018286034
:1028100002AB01AA0DF10A01204601F0F1F80028EF
:102820001FBF9DF80400201800780028DFD0FE2884
:1028300004D19DF80400401C8DF804000DF1070040
:1028400000903946BDF80A309DF804001B1A221882
:102850003046FEF72BFD00281CBF9DF8070000281E
:10286000C5D09DF80400BDF80A108DF80500641865
:102870000DF106030DF1050203A9204601F0C0F891
:1028800070B112989DF805201399A2180260BDF846
:102890000C309DF805001B1A0B6001200DB0F0BD37
:1028A00000200DB0F0BD30B5DFF81442256883B0CC
:1028B0002C0002950AD000931346069C01940A4608
:1028C000014602A8FFF77CFF03B030BD002003B033
:1028D00030BD80B5009313464FF0FF32FFF7E3FFA2
:1028E00002BD18B583B00C466B4602AA4FF0FF310B
:1028F000FFF7EFFF60B10098052809D20021019190
:102900000246029801A9FEF7B7FC019804B010BD79
:10291000204604B010BD13B59142044605D14FF0D6
:10292000FF321146FFF775FD16BD084601F0CFF8DE
:10293000034601AA4FF0FF312046FFF739FF16BDCD
:1029400000207047DFF8140381B001788DF8001083
:1029500082788DF8012001798DF80210C07A8DF807
:102960000300009801B07047020018BF12F1010F78
:102970002FD01068000DB0F5007F01BF101D016859
:10298000090D802925D100200832116800291CBFBB
:10299000090D802918D15168401C00291CBF090D60
:1029A000802911D19168401C00291CBF090D802984
:1029B0000AD1D168401C00291CBF090D802903D110
:1029C000401C10328028E0D3802802D2801C800076
:1029D000704700207047A24800687047A0484068D0
:1029E000704710B59E4C10B92068FFF7BDFF6060BE
:1029F00010BD10B538B94FF000509A4A01689142A5
:102A00000CBF40680020964C206038B1FFF7ACFF47
:102A100060602068BDE8104000F074BD10BD08B9CA
:102A20008F480068002818BF10F1010F14D0026809
:102A3000120DB2F5007F01BF021D13681B0D802B24
:102A40000AD1874A52683AB11018874B02689A42F5
:102A500002D10860012070470020704703000DD0AC
:102A60004FF6807303401B0100F07F0003F1006309
:102A7000401C0B60800210600120704700207047EE
:102A80000F4A001D1060091F51600120704738B5C2
:102A90000446764800900D46216811F1010F03D0DD
:102AA0001946104600F034FC04226946204600F026
:102AB0004BFC29462046FFF7E3FF012032BD000012
:102AC000CC00012078B408B965480068002818BF18
:102AD00010F1010F4AD00268120DB2F5007F01BF5C
:102AE000021D13681B0D802B40D15D4A5268002ADD
:102AF0003CD010185C4B02689A4237D130F8482F0E
:102B00000024002513000FD04FF6807515402D01CD
:102B100005F1006502F07F01491C2A68534B8902C8
:102B20009A4208BF284612D08288130011D04FF66F
:102B300080741440240104F1006402F07F06761CC6
:102B400022684A4BB6029A4203D13146204674BCF1
:102B500096E71DB1C3788278284604E034B1C37982
:102B600082793146204601B070BC90E772BC0020EB
:102B7000704700001D220208612202086522020837
:102B8000DC00012030B585B06946FFF748FF00281A
:102B90005AD0009800210191029104AAB0F848008F
:102BA00002A9FFF75BFF0098B0F84C0003AA01A947
:102BB000FFF754FFDDF80000B0F8481057A024A438
:102BC00023460222FEF7BCFFDDF8081056A023467C
:102BD0000422FEF7B5FF049956A02246FEF777FFC0
:102BE000DDF8000090F84A1055A02246FEF76FFF6E
:102BF000DDF8000090F84B1054A016A52A46FEF709
:102C000066FF0098B0F84C1053A023460222FEF74E
:102C100097FF019953A023460422FEF791FF0399E1
:102C200053A02246FEF753FFDDF8000090F84E1047
:102C300052A02246FEF74BFFDDF8000090F84F103F
:102C400051A02A46FEF743FF002005B030BD00002A
:102C50002C0000000D0A0000FDFDFD00107AFF1F92
:102C6000C400012004263751484657308C65A7B26E
:102C70002D2D2D2D2064656C657465206C61737439
:102C80002076616C756520212121200D0A0000004D
:102C90002D2D2D2D2057726974654E616D6564442C
:102CA000617461202D2D2D2D0D0A00002D2D2D2D4F
:102CB0002073616D652076616C756520212121206E
:102CC0000D0A00002D2D2D2D206D656D6F72792060
:102CD0006F7574202121210D0A0000002D2D2D2D4E
:102CE000206572617365206C6173742076616C7508
:102CF0006520212121200D0A000000002D2D2D2D01
:102D000020737461727420777269746520646174D1
:102D10006120212121200D0A00000000436F64651D
:102D200020413A2000000000204164647220413AB2
:102D300020000000204C656E20413A200000000079
:102D4000205061676520413A200000002050436F09
:102D5000756E7420413A2000436F646520423A202A
:102D600000000000204164647220423A200000000C
:102D7000204C656E20423A20000000002050616720
:102D80006520423A200000002050436F756E742089
:102D9000423A200030B585B04FF4D670FFF721FEDF
:102DA000DFF80845208881280ADBB0F5807F0AD04B
:102DB000B0F5007FACBFDFF8F854DFF8F85404E05A
:102DC000DFF8F45401E0DFF8F4546B2229464FF0A9
:102DD0000060FEF795FA002848BF284628D42088CE
:102DE00081280BDBB0F5807F08BFDFF8CC4407D02B
:102DF000B0F5007FA8BFDFF8C44401DADFF8B444BF
:102E00006B2221464FF00060FEF77AFA00280ED4BC
:102E10006B224FF0FF312046FEF783FA002809D5D8
:102E20004FF4D6724FF00061204600F08DFA204634
:102E3000FFF7DFFD0020FFF745FE00F041FA01A893
:102E400000F008FF0298DFF8B824A0FB0221480A2E
:102E5000401EB0F1807F0AD2DFF8A814DFF8A82462
:102E600048600023F02010708B60072008604FF44A
:102E7000A06000F099FF00228DF801208DF802205B
:102E8000FF2101228DF800108DF80320684600F024
:102E900090FF0121402000F025FF012000F0CAFF33
:102EA0007D2000F051FF10B100F05FFF0120FEF720
:102EB000C7F900F011F845F2555000F0D9FF032092
:102EC00000F0D9FF42F2107000F0D8FF00F0D9FFF7
:102ED00000F0DCFF05B030BD38B501214FF0805067
:102EE00000F00AFF012000F0DDFF002001F020F9D2
:102EF00043F2F224A042DFF8145414BF0120002052
:102F0000287000F013F8287848B12146002001F01D
:102F100000F9BDE834400021072001F0FAB8BDE80F
:102F2000344001214FF4802000F0D2BE80B5FFE78D
:102F300001214FF4802000F0CBFE012000F0B5FF0E
:102F4000082000F0B5FF0028FAD001BD10B50446F6
:102F50002146012001F03BF8211DBDE81040012071
:102F600001F0A7B810B504001CBF2068002812D0DB
:102F70006068012100F0ACFE207B022804D1627C55
:102F8000217C206800F07DFB206804F10801BDE889
:102F9000104000F033BB10BDF8B5054694B0EC68A6
:102FA000606C40B104F14400FFF7DCFF002104F144
:102FB0004400FFF730F92068DFF8641588421CBF31
:102FC000DFF8602590420DD101214FF4800000F020
:102FD0007FFE6068012100F099FE6068002100F02A
:102FE000A9FE0CE001214FF4001000F071FE6068B2
:102FF000012100F081FE6068002100F091FE04F1E3
:103000001C00FFF7AFFF206B18B104F13000FFF791
:10301000A9FF206801F0BAF804F10C0191E8CC0096
:1030200001A880E8CC00686920B1DFF8FC14884270
:1030300038BF0190206801A901F00CF920684FF415
:10304000587101F0A5F9E06D58B3206801224021C4
:1030500001F07DF9E06D01F09FF93C2105A8FEF734
:1030600006F9606E0590002321680A1D06926968C2
:103070000A68079208934FF4806248680B9209909F
:103080004FF480714FF440320A930C930D930E91DC
:103090000F9205A9E06D01F0EFF9E06D012101F05B
:1030A00014FAA06D04F16806C0B1A87840F00100E0
:1030B000A87001222068802101F049F971780A0086
:1030C0000CD08DF80010684600218DF801108DF8A5
:1030D000021001218DF8031000F06BFE31780A0018
:1030E0000CD08DF80010684600218DF801108DF885
:1030F000021001218DF8031000F05BFE206B18B95F
:103100002068012101F017F92068012101F006F97A
:1031100015B0F0BD00002DE9F04305468FB0AE6854
:10312000B068F7681FFA80F8BFB2B84502D0A87837
:10313000810701D5002068E0EC68606CA8B101212E
:1031400004F14400FFF767F8A87840F00800A87081
:103150004021206801F01CF994F8680028B120682B
:10316000012240F2266101F0FAF8A06D00283ED05D
:10317000474504DAA8EB0709C6F8108004E0716837
:10318000A1EB07090021316101F006F93C216846F5
:10319000FEF76DF8206E009021680A1D0192402212
:1031A000316803927F184FF48061069100224FF43A
:1031B00040310297CDF8109005920792089209923B
:1031C0000A916946A06D01F057F9A87840F0020015
:1031D000A87004F16801487820B1A06D0122102187
:1031E00001F081F9A06D012101F06FF90CE094F874
:1031F000680048B1A87840F00400A8700122206857
:1032000040F2277101F0ABF801200FB0BDE8F08368
:1032100010B50446E068C16E806D01F07BF990B195
:10322000E068C16E806D01F096F9A07C401CA0742E
:10323000A0680169C160A07800F0FD00A070204680
:10324000BDE8104067E710BD10B50446E168C86DE1
:1032500001F046F961684A688B68101A984204D0F8
:10326000DFF8CC2214684C61886010BDDFF89C0048
:103270000078704710B50446132000F059FF002C69
:103280001ABF411C61F30F0000F58030BDE810400B
:103290000146132000F03DBF10B50446132000F096
:1032A00047FF0CB180B210BD000C10BD227AFF1F89
:1032B00000000408004000080000010800000208A7
:1032C00080B5DFF870020178552917D001F01EFA99
:1032D000552001F02AFA01F031FA01F020FABFF38B
:1032E0004F8FDFF85412DFF854020A6802F4E062EC
:1032F00002430A60BFF34F8F00BFFDE7002002BD0D
:10330000986E128310E000E023ED00E0F70001204A
:1033100038B505460C4601F05FF9F32001F014FAC8
:10332000ED004CB10221284601F069F9641E09281C
:1033300006D10835002CF5D101F05AF9012032BD33
:1033400001F056F9002032BD70B505460E46144610
:1033500001F042F9F32001F0F7F9E41CA410012C6C
:1033600009DB56F8041B284601F07EF9092806D12E
:103370002D1D641EF5D101F03BF9012070BD01F057
:1033800037F9002070BDF8B506460F46144601F027
:1033900023F9F32001F0D8F90425F00701D4012C1A
:1033A00009D117F8011B304601F096F9092822D1FE
:1033B000761C641E1BD0022C0DDBB00701D4042C3C
:1033C00009DA37F8021B304601F06AF9092812D1F0
:1033D000B61CA41E0BD0042C11DB57F8041B30467E
:1033E00001F042F9092806D1361D241FF3D101F05E
:1033F000FFF80120F2BD01F0FBF80020F2BD6D1EC8
:10340000CBD1F8E780B5012000F023FDBDE80140F5
:1034100000F01CBD4F4A014610680918C91C8908F4
:103420008900116070470000F8B50546012D4FF482
:10343000D67608BF012401D00024CDB940480088C9
:10344000812808DBB0F5807F07D0B0F5007FACBFE6
:103450003C4D3F4D02E03C4D00E03C4D3E4A3F4F6D
:103460001368BB4207D1136C13F1010F1ED01D4628
:10347000B5F1006F44D901210020FFF749FF07464D
:103480000A20FEF71FFF38003AD005F5D670334A00
:103490000168914204BF068906F5D676BCB123A324
:1034A0000422294634A0FEF74BFB17E05268AA42DB
:1034B000E1D1812809DBB0F5807F08BF224DDAD049
:1034C000B0F5007FA8BF214DD5DA214DD3E73246B4
:1034D00029464FF00060FFF737FF07460A20FEF746
:1034E000F1FE6FB164B9BFF34F8F134913480A68F7
:1034F00002F4E06202430A60BFF34F8F00BFFDE7B2
:103500000020F2BD80B5B0F1006F07D300F1784123
:103510004FF0006000F07AFC012002BD002002BDE7
:103520000010014000140140E17072000D0A00001B
:10353000DC000120153C02400CED00E00400FA051F
:10354000227AFF1F000004080000010800000208A2
:10355000004000080C000020AC010008484657302D
:1035600080B59210FDF7CCFE10F1010F01D10120C2
:1035700002BD002002BD00004170704368616E67AB
:1035800065416464723D0000002201F039B930B435
:10359000002513E050F8042BD30744BFA9F1010321
:1035A0009A18091F042942F8045BFAD213468C07C3
:1035B00044BF15809B1CC90748BF1D7050F8041BF1
:1035C0000029E7D130BC7047002201F049B930B47E
:1035D0000EE00268436802440830DC0744BFA9F1EA
:1035E0000104E31852F8045B43F8045B091FF9D1A6
:1035F00050F8041B0029ECD130BC7047F0B5002412
:10360000002501220E6802FA04F31E409E422ED1CC
:103610000326AE400768F64337400760076891F815
:1036200004E00EFA05FE4EEA070707600F79012F46
:1036300018BF022F13D1876837408760D0F808C0C1
:103640004F79AF4047EA0C078760476827EA0303D2
:10365000436043688F79A740BFB23B434360C36870
:103660001E40C660C668CB79AB401E43C660641C72
:10367000AD1C102CC6D3F0BD0AB101837047418345
:103680007047CB0800EB8300890001F01C01036A3E
:103690004FF00F0C0CFA01FC23EA0C0303628A4082
:1036A000036A1A430262704701F0030310B48908E9
:1036B00007D004684FEA72725440491E40F8044B28
:1036C000F7D153B1C3F104034FF0FF34DB000168BD
:1036D000DC4004EA72746140016010BC70470C2346
:1036E000084318BF14231370012070472DE9FC47CD
:1036F0000E9E81460F4615469846FFF783FE044608
:10370000B460B9F1010F07BFDFF8E4124C40DFF8F5
:10371000E40244406740376000270B9A58EA0500EE
:1037200007D06540F56084EA08003061082742F45C
:1037300000520D9D0C990A9807EB050808F10C0939
:10374000C0F30A0002F47842C9F30A03104313439A
:10375000F080B380F219706802F10C0360408B4274
:10376000706004D0F0192A460C3001F093F8DDF8AF
:103770003CA000224946304601F0E0F806F10C0179
:10378000009041F80800F3192246291D03F10C00AE
:10379000FFF78AFF09F10400AAF80000BDE8F387EB
:1037A0002DE9F04F0C2983B00546164602D2139836
:1037B00001606AE013984FF0FF3101602A685340BE
:1037C000032E00930CD10099A868894A4140914288
:1037D00008BF012615D08748814256D1022610E045
:1037E000012E06D10099A868814A414091424CD1EE
:1037F00007E0022E49D10099A8687E4A41409142D3
:1038000043D16968009841400291BDF808B0BDF805
:103810000A90CBF30A0848466FF30A0B6FF30A00CD
:10382000834532D100275FEA8B4048BF0827DDF887
:1038300044A0A8F10C04E819E41B00F10C03534563
:1038400005D000F10C01221D504601F023F8009A2A
:10385000211D5046FFF728FF002207F10C012846E2
:1038600001F06CF801902CB102462146504601F05F
:1038700065F8019004220AEB040101A801F078F830
:1038800028B10FF2C030FEF7FCF8002025E00E98BA
:10389000109A0F990670C9F30A000880A2F800B0C8
:1038A0005FEA8B420C990D980AD519B1EB68009A22
:1038B00053400B6050B12A6900994A40026005E00C
:1038C00009B100220A6008B10021016008F1040179
:1038D0001298048013980160012003B0BDE8F08FB6
:1038E000F8B505461646891C434881FB002000EBCD
:1038F000D074A100012C196029DB404F0322294616
:10390000684600F0C7FF00997940009104200FF24B
:103910004031641E009A0B7802F03F021B2A05DB3F
:10392000212AB8BF153207DB3B2A01DA403203E017
:103930003F2AB4BF521F2422F254491C009A920914
:10394000401E0092E6D1ED1C361D002CD6D1F1BDF3
:10395000F8B5C91C4C1001EB94710025891001EBDE
:10396000410600291E603EDD244C0095009B0FF2AD
:10397000E3260325491E3778C75DA7F1400CBCF14B
:103980001A0F04D9A7F1610EBEF11A0F01D2403F00
:103990000CE0A7F1300CBCF1060F38BF153F05D382
:1039A000A7F1360CBCF1040F03D27F1D07F03F07CF
:1039B00002E0242F19D13F276D1E761E002D47EA05
:1039C0008313D8D563400093001D9DF8003002F8A2
:1039D000013B00299DF8015002F8015B9DF802307F
:1039E00002F8013BC2D10120F2BD0020F2BD00006F
:1039F0006AC3245D6DC9285A56555555A5C69BED19
:103A000070B40025044601E06D1CEDB214F8016BA2
:103A1000FD2E01D1032DF7DB445DE4B1FF2C03D172
:103A20000020187070BC7047802C03DA2C190C80B1
:103A30006D1C0AE0407840EA0420B0F57D4F0ADAB8
:103A4000C0F30E0028180880AD1C157000201870F7
:103A5000012070BC704701211970002070BC7047B4
:103A600010B4A8B17F2804D23BB9401C08600121E2
:103A70000DE04FF6FD4398420AD2801C040204F484
:103A80007F4444EA102444F080040C60022118E0D2
:103A90001AE010B4A0B17F2803D2401C08600121B5
:103AA0000DE04FF6FD4398420AD2801C040204F454
:103AB0007F4444EA102444F080040C60022100E0BA
:103AC00002E0117010BC704710BC0020704701B4B8
:103AD0009DF803100420002902BF03209DF8021066
:103AE000002904D19DF80110022001B9012001B084
:103AF0007047F0B4456883689D422EDA06687419F1
:103B00000027234601E07F1CFFB213F801CBBCF174
:103B1000FD0F01D1032FF6DBE35D002B18BFFF2B58
:103B20001BD0802B02DAFB187F1C09E0647844EA82
:103B30000323B3F57D4F10DAC3F30E03FB18BF1C4C
:103B4000FFB27D1974199BB20C60DF1B17604168CE
:103B50005B1843600120F0BC7047F0BC0020704748
:103B60001CB50C46002323606A4601A9FFF7C1FF7C
:103B700018B10098052800DA10E0002016BD1CB529
:103B80000C46002323606A4601A9FFF7B2FF18B173
:103B90000098052800DA01E0002016BD02460199D0
:103BA000204600F077FE012016BD2DE9FC411400EF
:103BB0000546884626D07F2C03D2601C0090012742
:103BC0000DE04FF6FD418C421CD2A01C020202F413
:103BD0007F4242EA102242F080020092022788B11E
:103BE000EE6828693A466946301800F053FE2969A4
:103BF000C81928613218C8F8002024182C61012047
:103C0000BDE8F6810020BDE8F68138B50C461546C2
:103C10006946FFF7CAFF28B100982A46214600F0FE
:103C200039FE009832BD13B504460846FFF74FFF32
:103C3000024601A92046FFF7E8FF00B1012016BDAA
:103C4000000000006578697420340D0A000000004F
:103C50000200030110B4494A516801F00C01042923
:103C600002D0082902D019E0454918E0116813680C
:103C70001468C1F38051002903F03F0314BF404989
:103C80004049B1FBF3F3C4F388114B431168C1F30E
:103C90000141491C4900B3FBF1F100E039490160E1
:103CA000394B51680468C1F30311595CCC4044603E
:103CB00051684468C1F38221595CCC4084605168EA
:103CC0004268C1F34231595CCA40C26010BC7047BF
:103CD0002E4A002919BF11680843136823EA00001F
:103CE000106070472A4A002919BF116808431368F9
:103CF00023EA000010607047264A002919BF1168A6
:103D00000843136823EA000010607047224A002924
:103D100019BF11680843136823EA00001060704758
:103D20001E4A002919BF11680843136823EA0000DE
:103D3000106070471A4A002919BF116808431368B8
:103D400023EA000010607047014640090A4A012832
:103D500008BF106803D002280CBF106F506F01F02D
:103D60001F01C84000F0010070470E48016841F093
:103D70008071016070470000003802400438024042
:103D800000127A000024F4001000002030380240B5
:103D90003438024040380240443802402038024063
:103DA00024380240743802401B491C4A0843106002
:103DB0007047F0B40378C1781C460122E1B117497D
:103DC0000B684578867803F4E063C3F5E0631B0A6B
:103DD0000F27C3F10401DF408D403E4035431049B9
:103DE000104B2D010D55017801F01F00824049094B
:103DF00043F82120F0BC704703F01F030A4802FA81
:103E000003F3640940F82430F0BC7047074A1140BE
:103E100008430749086070470000FA050CED00E010
:103E200000E400E000E100E080E100E080FFFF1F2F
:103E300008ED00E00B4920B1086840F0040008607C
:103E400070470A6822F004020A607047064800685A
:103E50007047064A1368014600200B4218BF012034
:103E60007047000000080650080806500408065075
:103E700009490860704709490860704708490860A7
:103E8000704705494AF6AA200860704702494CF677
:103E9000CC40086070470000003000400430004013
:103EA00008300040064908607047064908607047BE
:103EB000054A1368014600200B4218BF01207047D5
:103EC00020000E42A4000E420470004081B0002089
:103ED0000090DFF8A00201684A060FD44FF0FF31CE
:103EE00001600168009A521C0092009AB2F5803F6E
:103EF00001D04906F5D5006880091DE0012001B018
:103F0000704781B00020DFF86C120090CA228A61ED
:103F1000532088610A6822F0A0020A600868009AAB
:103F2000521C0092009AB2F5003F01D08006F5D5F0
:103F3000FF2208688A61400900F0010001B0704763
:103F40002DE9F0410024DFF828520028A8680E4629
:103F500029D1410658BFF470307800F0F6F8804659
:103F6000707800F0F2F80702B07800F0EEF847EA57
:103F700008470743F07847EA0047CA21696253209F
:103F80006862FFF7A3FFE8B1DFF8EC0107402F609C
:103F9000E96821F08001E960A868810611D4FFF783
:103FA000B0FF78B10DE0410658BFF47077783178F2
:103FB000B0783F0247EA0147F178074347EA0147F3
:103FC000DBE70124FF2068622046BDE8F08130B4C1
:103FD000DFF89C31DFF8A0211B6813401A0C02F0B7
:103FE0003F040C701D0A02F040024D708B70CA70C5
:103FF000D0B90878020902EB820300F00F0000EB51
:10400000430008704878020902EB820300F00F00B9
:1040100000EB430048708878020902EB820300F04D
:104020000F0000EB4300887030BC7047F8B50E46B7
:104030000024757870BBE80603D505F0EF050A3556
:104040007570F07800F081F80746707800F07DF820
:104050000502B07800F079F845EA07450543307865
:1040600045EA4035DFF81461CA20306253213162DD
:10407000FFF72CFFC8B1DFF8080105403560B168D3
:1040800021F08001B160706881060DD4FFF739FF1F
:1040900058B109E0F07831782D0245EA0045B07852
:1040A000054345EA4135DDE70124FF203062204623
:1040B000F2BD30B4DFF8C430DFF8C4201B68134011
:1040C0008B701D0A1C0C05F01F055B0BCC704D702E
:1040D00003F007030B70D0B9C878020902EB820322
:1040E00000F00F0000EB4300C8704878020902EBB3
:1040F000820300F00F0000EB43004870887802094B
:1041000002EB820300F00F0000EB4300887030BC2C
:10411000704781B000230093DFF86CC0CDF800C079
:10412000009A02EB800200920098016001B0704793
:1041300081B000220092144B0093009901EB8001A2
:1041400000910098006801B07047002201460A29DA
:1041500009DB0C4A81FB0232931003EBD373F62187
:1041600001FB03001A011043C0B2704700000000B9
:10417000002800400C2800407F7F7F00042800407A
:104180003FFFFF00676666665028004080B55A49C9
:10419000884206D101211020FFF7CCFD002110201C
:1041A00038E05649884208D101214FF40030FFF72A
:1041B000B7FD00214FF4003047E05149884208D153
:1041C00001214FF48020FFF7ABFD00214FF4802048
:1041D0003BE04C49884208D101214FF40020FFF711
:1041E0009FFD00214FF400202FE04749884208D16D
:1041F00001214FF48010FFF793FD00214FF4801050
:1042000023E04249884209D101212020FFF792FD95
:1042100000212020BDE80440FFF78CBD3C498842C6
:1042200008D101214FF08040FFF77AFD00214FF0C7
:1042300080400AE0374988420BD101214FF000400D
:10424000FFF76EFD00214FF00040BDE80440FFF78E
:1042500067BD01BD38B5044684B00D46228AE888A2
:104260004CF6FF710A40024322824EF6F311A289F6
:10427000A8880A402989024368890A430243A28127
:104280004FF6FF41A28AA8890A400243A2826846EB
:10429000FFF7E0FC18492A688C421BBF1B48844288
:1042A000039902991920A389414318044CBF520075
:1042B0009200B1FBF2F1184BA1FB033292091201FB
:1042C00015096420A38900FB1511180408D5C9003D
:1042D0003231114BA1FB0330800900F0070007E0E9
:1042E000090132310C4BA1FB0330800900F00F00B3
:1042F0000243228105B030BD00100140004400405F
:1043000000480040004C00400050004000140140B4
:1043100000780040007C00403E0AD7A321B181898B
:1043200041F400518181704782894DF6FF71FFE7AA
:104330000A408281704721B1818A41F0080181825F
:104340007047828A4FF6F7710A4082827047002ACE
:10435000828A14BF114322EA0101818270470B0651
:104360005B0F4FF0010C01F01F01012B0CFA01F162
:1043700008BF0C3003D0022B0CBF10301430002AC1
:1043800019BF02681143036823EA01010160704705
:10439000FFE7C9430180704701684908490001608F
:1043A0000022026042608260C26002612122704984
:1043B0004261884202D13D206E4A44E06E49884203
:1043C00003D14FF474606B4A3DE06C49884203D1DD
:1043D0004FF47410674A36E06949884203D14FF0C0
:1043E0007460644A2FE06749884202D16648614A96
:1043F00040E06649884202D165485E4A3AE0654934
:10440000884202D164485B4A34E06449884203D15F
:104410004FF03D50574A2DE06149884208BF3D208A
:1044200010D06049884208BF4FF474600AD05E49DA
:10443000884208BF4FF4741004D05C49884204D10C
:104440004FF074605A4A106070475A49884208BF5A
:104450004D480ED05849884208BF4D4809D05749A9
:10446000884208BF4C4804D05549884203D14FF0D8
:104470003D504F4A5060704730B40568514C0B684E
:10448000CA6825401D434B6915438A691D43CB69A2
:1044900015430A6A1D434B6A15438A6A1D434B6BD9
:1044A00015438A6B1D431543056043690C6BCA6A4B
:1044B000DB08144344EAC30343610B6943604A6861
:1044C00082608968C16030BC704721B1016841F0E9
:1044D0000101016070470268520852000260704793
:1044E000406880B270470B0607D51300436914BFBC
:1044F00043F0800323F080034361802909D001F059
:104500001E01002A19BF02681143036823EA010152
:104510000160704702460020214BDFF8B8C09A4284
:1045200034BF294B294B11EA0C0F05D0126802EA5F
:10453000D12202F01E0202E0526902F080025FEA1C
:10454000810C4CBF5B681B681940214B19421CBF92
:10455000002A01207047124A904234BF1A481B4873
:104560001B4A0A40890001D5C260704782607047CB
:104570001060024008600240286002404060024033
:1045800058600240706002403D0000208860024098
:10459000400F0020A060024000003D20B8600240B3
:1045A00010640240286402404064024058640240A3
:1045B000086402407064024088640240A0640240C3
:1045C000B86402403F801CF000600240006402407A
:1045D0007D0F7D0F3C0F3C0FDFF8FC01C168002907
:1045E00005D5DFF8F811DFF8F83101600360704796
:1045F000DFF8F001016841F000410160704770B5DB
:104600000446002508000AD0012908BF4FF4807530
:1046100005D002290CBF4FF400754FF4407500F02F
:1046200096F809281FD1DFF8BC61306820F440708B
:10463000306044F0020431680D433560326822F086
:10464000F8023260306804433460316841F48031EC
:10465000316000F07CF8316821F00201316032688D
:1046600022F0F802326070BD70B504460D4600F0CD
:104670006EF8092813D15B4E306820F4407030602A
:10468000316841F400713160306840F00100306001
:10469000256000F05CF8316849084900316070BD60
:1046A00070B504460D4600F052F8092813D14D4E5E
:1046B000306820F440703060316841F480713160BE
:1046C000306840F001003060258000F040F831682B
:1046D00049084900316070BD70B504460D4600F0D0
:1046E00036F8092811D13F4E306820F44070306010
:1046F00031683160326842F001023260257000F0AA
:1047000026F8316849084900316070BD3648C168F3
:10471000CA0703D53549364B0160036070473548F9
:10472000016841F001010160704710B5044600F0D6
:104730000EF8092804BF3048047010BD2D480178D8
:1047400041F00201017002E02C490860704781B01D
:1047500009208DF80000092128480268D30348BFCA
:1047600001211ED40268D30648BF062119D402686D
:10477000D30548BF022114D4026812F0E00F18BF1D
:1047800007210ED1026893070BD5082109E00268C2
:10479000930706D5082104E0026812F0E00FF6D076
:1047A00007218DF800109DF8001001290FD1026833
:1047B0000921D30348BF0121F3D40268D30648BFBF
:1047C0000621EED40268D305E6D50221E9E79DF87B
:1047D000000001B070470000043C0240230167451F
:1047E000AB89EFCD103C0240083C02403B2A19083F
:1047F0007F6E5D4C143C0240153C02400C3C024074
:10480000401810F0030308D0C91A1FD3DB0748BFB4
:1048100000F8012D28BF20F8022D130030B41446F3
:104820001546103928BF20E93C00FAD8490728BFAF
:1048300020E90C0048BF40F8042D890028BF20F86B
:10484000022D48BF00F8012D30BC7047C91818BFB1
:1048500000F8012DCB0728BF00F8012D704700009C
:1048600000B500BF130096469446103928BFA0E853
:104870000C50FAD85FEA417C28BF0CC048BF40F812
:10488000042BC90728BF20F8022B48BF00F8012BD2
:1048900000BD000062B38B0708D0521E11F8013B27
:1048A00000F8013B00F024808B07F6D1830740F02D
:1048B000208000BF103A07D330B4B1E83810103A66
:1048C000A0E83810F9D230BC530724BFB1E8081073
:1048D000A0E8081044BF51F8043B40F8043BD2075D
:1048E00024BF31F8022B20F8022B44BF0B78037051
:1048F0007047121F17D35B0009D151F8043B20F811
:10490000023B1B0C121F20F8023BF6D20BE051F8C1
:10491000043B00F8013B1B0A20F8023B1B0C121F52
:1049200000F8013BF3D238BF121D521E24BF11F80C
:10493000013B00F8013BF8D8704700004FF0FF330F
:1049400030B45A4001290BDB084B10F8014B54409E
:1049500004F0FF0453F82450491E85EA1222F4D1D2
:1049600030BC4FF0FF305040704700BFD4620208A7
:104970000300002013F0030F09D0521E22BF13F8CA
:10498000010B11F801CBB0EB0C00F3D0704711F024
:10499000030F14D1121F22BF53F8040B51F804CB9C
:1049A0006045F7D0121D0AD200BA9CFA8CFCB0EB1D
:1049B0000C0038BF6FF0000088BF01207047521E06
:1049C00022BF13F8010B11F801CBB0EB0C00F6D0AD
:1049D000521C08BF1046704738B5044604F1F00574
:1049E0002846FDF74EF894F83302002814BF41A082
:1049F00041A0FDF746F813A0FDF743F8D4F8702264
:104A00002AB194F833122846BDE83840104731BD2A
:104A100010B5026890680C46FDF7FCF92046FDF7DA
:104A200030F82046FCF72CFF012809DB204410F861
:104A3000010C0D2804D1BDE8104030A0FDF721B8CD
:104A400010BD00000D0A0000F0B5044604F2232654
:104A500089B0012004F23E2530704FF0FF332B80E7
:104A6000002201A929A0FCF746FF02467079002820
:104A700001A914BF0FF2A00021A0FCF73CFF0246E1
:104A80000DF1040126A0FCF736FF0246A878810745
:104A900001A954BF1BA01CA0FCF72DFF024601A9D1
:104AA00022A0FCF728FF07467079A978002814BFD8
:104AB0001920F120CA0748BF401E03226946FCF7AF
:104AC00083FD3A4601A9FCF716FF02460DF10401E9
:104AD00018A0FCF710FF01A92046FFF799FF04F189
:104AE00098012046FFF794FF15A12046FFF790FF9D
:104AF00009B0F0BD202A0000202300000A000000B9
:104B000047534D00313700003439000041542B43E6
:104B10005343533D22000000554353320000000030
:104B2000223B2B43534D503D000000002C313637C3
:104B30002C302C003B2B434D47533D2200000000FE
:104B4000222C3134350D000010B500F50D74002114
:104B500005A0FDF7C6FE20705FF05A0104A0FDF726
:104B6000C0FE607010BD00004A414D4D4F444500ED
:104B70004A414D54485200002DE9F041DFF874538A
:104B800084B0044604F1D8072868786004F50776F5
:104B90003170491E102900F23181DFE811F0110057
:104BA00013003200350038003B003E00420059003F
:104BB0008400E3000701C50078001C011F012B01E0
:104BC00090A118E12046FFF7BFFFDFF8241320462D
:104BD000FFF71EFF307E88B1707E03226946FCF726
:104BE000F3FC0FF240212046FFF712FF69462046F2
:104BF000FFF70EFF84A12046FFF70AFF0FF23021D6
:104C0000F9E00FF23821F6E00FF23C21F3E0DFF893
:104C1000E812F0E00FF23C21EDE02046FFF714FF30
:104C2000ECE02068327A806804F580784146FDF730
:104C3000EDF82068806875A1FDF7ECF82868386108
:104C40004046317AFCF716FF71A0FCF71AFFD5E059
:104C5000B7F90000002800F1D1800121317420460D
:104C60007FA1FFF7D5FEB7F90010DFF8840200EB53
:104C7000411202F19C012046FFF7CAFE7BA12046AB
:104C8000FFF7C6FE2868306329683961B6E0B7F9D6
:104C90000000002800F1B28001213174286800BFB3
:104CA00077A13063A7E0B7F90000002800F1A680E3
:104CB00096F8128008EB480004EB800000F18801B0
:104CC00001228A706946286870634046FCF777FCC9
:104CD0006EA12046FFF79CFE69462046FFF798FE2E
:104CE0006EA12046FFF794FE08EB480004EBC000DD
:104CF00000F1500669463068FCF7ACFC01462046DE
:104D0000FFF786FE43A12046FFF782FEB08805220A
:104D10006946FCF759FC01462046FFF779FE3EA1A3
:104D20002046FFF775FE53E0B7F90010002965D45F
:104D3000B07C00EB400104EB810101F1880201230A
:104D400093700122296871636946FCF738FC00BF43
:104D500055A12046FFF75CFE69462046FFF758FE46
:104D60002EA148E0B57C00BF53A1F5742046FFF7A3
:104D70004FFE012269462846FCF721FC01462046E9
:104D8000FFF746FE26A12046FFF742FE05EB450051
:104D900004EB80000322B0F888006946FCF70FFCA2
:104DA00001462046FFF734FE1CA124E0B07C00EB56
:104DB000400104EB810100EB4003B1F8882004EBD3
:104DC000C30000F15001206889688068FDF71EF873
:104DD0002868386112E000BF3AA10CE03CA12046EF
:104DE000FFF716FEF07D48B10021F1752046FFF770
:104DF000F3FD03E039A12046FFF70AFE04B0BDE849
:104E0000F081000041540D002C313B001A000000DD
:104E10000D0A0000222C2200220D00000D000000CF
:104E20002C0000002B534A44523D312C312C000001
:104E30002B4353504E3F3B45300D000041542B4314
:104E4000474D4D0D0000000041542B4347534E0D7C
:104E50000000000041542B4353504E3F0D00000012
:104E600041542B435354543D22000000223B2B431A
:104E7000494943523B2B43494653520D0000000021
:104E800041542B434950534855540D0041542B4332
:104E9000495053544152543D000000002C225443C9
:104EA00050222C220000000041542B434950434C17
:104EB0004F53453D0000000041542B43495053459A
:104EC0004E443D0041542B43504F57443D310D005B
:104ED00041542B434855500D0000000041542B43D2
:104EE0005553443D312C222A31303023220D00000D
:104EF000D4660208DC000120286702080FF2442073
:104F0000FCF7BFBD00002DE9F041074607F5097524
:104F10000846297816461C46F1B918B107F19801E0
:104F2000FCF7CBFC07F5807831464046FCF7DBFA0E
:104F3000287160B107F1980002464FF0FF31FCF78D
:104F400086FA424631464046FCF781FAB6002E709A
:104F5000AC830120BDE8F0811EE02DE9F04106465A
:104F60000F4606F22221154608789846A0B18878A7
:104F700090B9B8F58E7FC8BF4FF48E78069C06F5C1
:104F8000807142462846FCF777F923464246394667
:104F90003046BDE8F041B6E70020BDE8F0810000F2
:104FA00018B40C4604F11002517C21B11368032B94
:104FB0008941C90F00E001219174517C79B11168D8
:104FC000012908BF012202D0022903D1002200F2E8
:104FD0001E20C273012218BC5EA0FDF79CBC90F895
:104FE0001E22204601B02EA310BC194600F09DB928
:104FF00038B501F12104217869B901222A4B2B49E6
:1050000080F82A221D684D19C0F8E0504DA0FCF729
:1050100038FD0121617031BDF8B50C4604F1100670
:105020000546707C20B1316802298041C00F00E044
:105030000120B07405F22927707CA0B1D6F80010C9
:1050400046A00022FDF767FC39783068814211D014
:105050000122154915487A700B68C318C5F8E0306D
:10506000BDE8F2404AE73A78204601B0BDE8F0409A
:105070000BA3BAE7F1BD38B501F121050446287844
:1050800060B123680A6909689868FCF7BFFE206868
:10509000806804A1FCF7BEFE0120687031BD0000ED
:1050A000000000000D000000DC00012038CDFFFFF3
:1050B00038B501F121050446287848B94FF4FA7053
:1050C000FDF700F90F212046FFF756FD012068701B
:1050D00031BD38B501F121050446287878B94FF47F
:1050E000FA70FDF7EFF8012100914FF4FA734FF4D5
:1050F0007A7204F12C00FCF799FD0120687031BD33
:105100002DE9F8410D4605F1210485B0804620784F
:105110000026002798B12969286801AAFCF7D9FB65
:105120002078022802DB6E69C8BFAF69BFB2009762
:1051300033466A6801A94046FFF70FFF607006B06A
:10514000BDE8F0812053494D204368616E676521B9
:105150000D0A0000474D4F444500000053494D43A0
:10516000415244002DE9F8478DB090460022054693
:105170000E4603920DA94046FCF7D7FBB24669687C
:105180005046FCF72AFBFCF77CFC0D980024002815
:1051900008DD58A0FCF775FC0D994046FCF76AFC49
:1051A00055A000E055A0FCF76CFCA86800EBCA0114
:1051B00004AFB1F8049019F0030F21D001A80090BA
:1051C00002AB0D9903AA4046FCF7FAFBC0B109F007
:1051D0000300022809D100203860002202980199BA
:1051E0004044FCF7F9F9386104E002984044386023
:1051F00001993961641C3F1D042C4FEA9909DADBDF
:105200008DF83060601E8041C043C00F0CAEF0705E
:105210000020B0707470A86850F83A200AB300EB10
:10522000CA00B0F90600002803DD296851F8200003
:1052300005E043BF2968404201EB80000020006880
:1052400004A9904714B92CA0FCF71BFCF07840B1DE
:10525000B078002814BF0FF2D8300FF2DC30FCF722
:1052600010FC0EB0BDE8F087F8B584B00E46002102
:1052700005461746019191A427E0019719E002988D
:1052800001990818B842029005DA0146705C3D2881
:1052900004BF481C0290029A029901ABBA1A314429
:1052A0003B20FCF7CCFA0028E7D0019802990818B7
:1052B0000190019B02981B1A32180398C1B228462C
:1052C000FFF750FF0198401C01900198B8420FDA97
:1052D0003A1A21463044FCF7DCFA02A90091014653
:1052E00001986A6803AB3044FCF736FA0028C6D14F
:1052F00005B0F0BD3D0000000D0A00003A000000BE
:1053000070B51446002C05460E4608DD16F8011B44
:10531000002300222846FFF725FF641EF6D170BD4A
:1053200008464FF0FF31FCF7A5BB30B583B008004D
:1053300015461C461CBF4FF0FF31FCF79BFB0B22B0
:1053400069462846FCF740F94FF0FF31FCF792FB25
:1053500024B14FF0FF312046FCF78CFB03B030BD89
:105360002DE9F84F8EB00026DDF860B0089109965F
:105370000A920B930C96CBF8006007460C78504EBF
:10538000E40990460FE00C98A0EB0A05012301AA5E
:1053900006A9A81EFEF764FB06982080029989449E
:1053A00009F102000990A8F10100DDF8249081457F
:1053B00079DADDF830A094B109F101000A9002AA6F
:1053C0000B9800EB0A0407A908A8FEF792FB0298C5
:1053D0000999029A4844891A0A90099101E0CDF886
:1053E000088004AA05A908A8FEF783FB00285AD064
:1053F00005983168007803AB0022FCF720FAA0B1D1
:10540000039DE8B2032809D114B10C98801C0C90BC
:10541000049A059908A8FEF7F8FB07900598411C27
:1054200004980591401E049000E0052500218DF8A8
:1054300034508DF835500091FA680499059803AB03
:10544000FCF78AF900281FBF3869039950F831200A
:10545000002A12D0001D30F93100002804DD39681F
:1054600051F82000006805E043BF3968404251F818
:105470002000002008A9904702E004208DF83500A4
:10548000EDB2032D0CD19DF83500032804BF022195
:105490008DF8351030689DF83510079A405C107013
:1054A000002C7FF470AF0C98CBF800000C99002909
:1054B000CCBF012000200FB0BDE8F08F3D3B0D00B8
:1054C00008000020F8B5ADF5476D07460C464FF4CF
:1054D00088600A901546216818291E4634DB781822
:1054E0000AAB10F8010C0D2808BF491E0CAA38465B
:1054F000FEF72EFA40B30BA807900DF1220108A881
:105500000290069109AA0DF126030A9804920393CA
:1055100081B20597019600954FF00F3301220CA838
:10552000FEF73EF980B1BDF8240001040CD5DDF88A
:10553000880CBDF822102160BDF8262002800DF5F0
:10554000406D01201DB0F0BD0DF5406D00201DB077
:10555000F0BDF6B5ADF5406D9BB0064608920C4621
:105560001D4607AF009709AB0AAA08A92046FFF716
:10557000A9FF002844D009990A9806AAFEF7AFF8B7
:1055800000283DD09DF8182008A80BA900908B1882
:10559000089A21463046FFF7E3FE88B3089A0A9B33
:1055A0000BA90DF11A00049192B2059003920BA879
:1055B0009DF818104FF400420144BDF81C00019200
:1055C000029100904FF00F31099A0220FEF78EF8F9
:1055D000BDF81A100DF5476322460BA8FEF780F9B7
:1055E000DDF8701C0D206054DDF8700C401CCDF807
:1055F000700C736953B1024621462846984705E06E
:10560000DDF8702C21463046FFF72EFE0DF5406D7B
:105610001DB0F0BD10B5040003D11820FBF700FE4B
:10562000044618212046FBF722FE204610BD00004C
:105630003A4F4B0D0A0000003A4552524F520D0AA4
:1056400000000000DFF874050168491C0160704724
:10565000DFF86C0501E0DFF86C050068FDF7D8BDE8
:1056600070B5044610000D460DD1DFF85C65706E14
:1056700038B18178CA0704D580682A462146FCF7EC
:10568000C5FBB06E48B18178CA0706D580682A4646
:105690002146BDE87040FCF7B9BB70BD0022DFE7D2
:1056A0000B46114602461846DAE710B501F121040F
:1056B000207848B9DFF81005826C00211160C06CB9
:1056C000FCF794FD0121617010BD000091F82100EC
:1056D000022827DB0869042820D8DFE800F0030748
:1056E0000B0F1300DFF8E024106D0EE0DFF8D80494
:1056F000406D0AE0DFF8D004806D06E0DFF8C804F2
:10570000C06D02E0DFF8C004006E38B18278D307C4
:1057100004D54A6949688068FCF778BB0FF2E84015
:10572000FCF7AFB901280ED1DFF8A00402680869C0
:10573000B2F8603001280EBF43F480734FF6FF606B
:105740000340A2F86030704710B5DFF87C443C217C
:105750002046FBF78CFD0420FDF75CFEA06440F6BC
:105760000841DFF86C240020FCF72EFDE0640121E5
:10577000817100210FF2A840FDF7B3F84FF47A7160
:105780004843E0620020BDE81040FDF773BD10B54E
:105790000FF294410A6886B005A80260FBF754FD39
:1057A000002814BF8BA00FF28440FCF76AF90FF2B7
:1057B0008440FCF766F902A90020FDF730F9D0B16A
:1057C0000298006A082203A9FBF7B9FD01210DF137
:1057D0000D00FCF74FF926A4234602220DF10E011D
:1057E0007DA0FCF757F92346032204A90FF260407D
:1057F000FCF750F903E00FF26040FCF742F9FBF7C9
:105800001BFD014687A20FF25840FCF760F900200B
:10581000FDF742FD15A4014622460FF25040FCF769
:1058200056F9FDF723FD18B10FF24C40FCF729F9AA
:10583000DFF8A0030068042205A9FFF761FD00203E
:10584000FDF7A0F9694601A8FCF7DEFC01990FF20B
:10585000484023460422FCF773F900990FF24440B4
:105860002246FCF734F906B010BD00000D0A000016
:105870000000000018B50400ADF5406D18BF8C4263
:1058800093B016D0A078C10713D501A800900523C6
:1058900060684FF4407202A9FCF745FB48B1DFF89D
:1058A0003403019A0068234602A9FFF752FE012043
:1058B00000E000200DF5456D10BD000010B5DFF8CB
:1058C0000843A26E616E206DFFF7D4FFA26E616E79
:1058D000606DFFF7CFFFA26E616EA06DFFF7CAFF8C
:1058E000A26E616EE06DFFF7C5FFA26E616E206E65
:1058F000FFF7C0FF606E00220021FFF7BBFFA06E24
:10590000BDE8104000220021B4E71CB5DFF8B84222
:10591000607A60B92168DFF8A43218684FF4FA722F
:10592000FBF796FC18B1FFF732FF01206072A06A06
:10593000022814D1616ADFF8840200684FF47A62A9
:10594000FBF786FC58B1002000904623E06B4FF433
:10595000FA720121FCF76AF90120A06202E0A06A54
:10596000012813D1216ADFF8540200684FF4FA527B
:10597000FBF76EFC50B1002000904623E06B4FF423
:105980007A720121FCF752F90020A06213BD897FD1
:105990000FF2243202E0897F0FF22C320FF2103026
:1059A000FCF795B80029884912BF00208448006898
:1059B0004866704738B501F12104207840B1864B24
:1059C0001D684A694968A868FCF720FA01216170DE
:1059D00031BD0000574447002E00000038B50C468A
:1059E00004F12105287801280CD121690FF2EC205F
:1059F0006EA2FCF76CF821694FF4E1326CA0FCF761
:105A00008AFF0CE002280CD121690FF2E42069A280
:105A1000FCF75DF8616965A267A0FCF758F8012002
:105A2000687031BD2C2000003EB50C4604F1100515
:105A3000687C68B96846FDF789FA5CA30822694664
:105A40000FF2BC20FCF78EF80120A87403B030BD23
:105A5000012807D1286840BB0FF2B420FCF711F8E9
:105A600003B030BD022820D1286801280ED14FA3F1
:105A7000042204F114010FF2AC20FCF773F804F1D6
:105A800014010120FEF75CFA03B030BD02280CD1EE
:105A900046A3042204F114010FF29420FCF762F8EB
:105AA00004F114010120FEF7C1FA03B030BD00007B
:105AB0007CB5FDF76FF90020FFF7ACFD4549474A7B
:105AC000474B414C474E3E4D08600260436046499B
:105AD000464A8160C2604649464A01614261FFF719
:105AE00033FE4548FBF7C2FF94A10020FCF7A3FB5F
:105AF00000210091E06346234FF47A720121FCF704
:105B000095F80020A0624FF461223146FCF7ACFB0F
:105B100028604FF4E13126A0FCF7E3FE024606F1CF
:105B200070010020FCF7A0FB014626488DA2274EFD
:105B3000009201605FF0010385A20020FAF736FBB6
:105B400030602968FAF7D1FD30682C49224674305C
:105B5000FCF7CEF8296830688A68C26203234FF4E4
:105B600000721146FAF778FD2065224624492C3050
:105B7000FCF7BEF8206D234922463430FCF7B8F814
:105B80002868216D6066A16673BD80B5FFF7BDFE14
:105B90000D48C06BFCF772F80C480068FAF77EFC01
:105BA000FFF78CFEBDE80140FEF76BB90D0A00005F
:105BB000574252002C00000000000000DC000120D1
:105BC000E4000120EC00012040000120F000012051
:105BD00015340208E0000120E80001202000002028
:105BE00064680208786B0208906A0208986D0208DF
:105BF000286D0208A15602089D560208A559020800
:105C00008F590208975902084C696E6B206E6F20FD
:105C1000416374697665202121210D0A000000008E
:105C2000534D53495400000000010D174E6F726D23
:105C3000616C000020737461727420666F7220774B
:105C4000743430316E632076657273696F6E200034
:105C5000206275696C643A00302E3230000000001A
:105C600020416C6C6F634D656D3A20005265737412
:105C7000617274733A2000004261636B7570206D2D
:105C8000656D6F727920696E697469616C697A6596
:105C9000642E0D0A0000000043666741646472656B
:105CA00073733D004366674C656E6774683D000022
:105CB0004C696E6B205B00005D3A20436F6E6E6531
:105CC00063746564210D0A005D3A20446973636F53
:105CD0006E6E6563746564210D0A0000426175642F
:105CE00020726174652073657475703A200000003D
:105CF000506F7765722073657475703A20000000EC
:105D000054696D65205374616D703A200000000085
:105D10005254435F496E697469616C697A650D0A12
:105D2000000000005365742054696D653A2000003E
:105D300053657420446174653A20000000040240F9
:105D400002000000800000000102000000000000CE
:105D500000180240400000000400000001020101A0
:105D60000000000000180240400000000800000091
:105D7000010201010000000018B587B00C460023A5
:105D80000C2269463748FBF70EFB01462046FFF719
:105D9000C7FA012084F8220008B010BD38B50C46BF
:105DA000304D0C2229462046FDF72FFFB0B1FCF7FD
:105DB00015FE01462046FDF736FF78B1FCF70BFED5
:105DC00001462046FDF72FFF40B1698A2046FDF7C6
:105DD0002AFF401E8041C043C00F00E000206075D4
:105DE00031BD18B583B00C46FCF7ACFD08226946FE
:105DF000FBF7BCFA01462046FFF792FA012084F82F
:105E0000220004B010BD10B50C46FCF79BFD014606
:105E10002046FDF708FF607510BDFEE7FEE780B580
:105E20000FF27840FBF72DFE4FF4FA70FCF74AFAB8
:105E3000BFF34F8F0C490D480A6802F4E062024339
:105E40000A60BFF34F8F00BFFDE7BFF34F8F0649D6
:105E500006480A6802F4E06202430A60BFF34F8F0B
:105E600000BFFDE7107AFF1F0CED00E00400FA050B
:105E700010B50A4602F12104207838B102281069D1
:105E80000CBF51690121FDF743FA607010BD1CB5CC
:105E90000C4601A92046FDF763FE68B1694620461D
:105EA000FDF75EFE40B100990198FDF731FA401E02
:105EB0008041C043C00F00E00020607513BD38B5BD
:105EC0000C4604F12105D2B02878022815D12069AA
:105ED00098B1616960686B4601AAFBF792FA60B1FC
:105EE000009A206901A9FDF72FFA687028B1009A7D
:105EF000206901A9FDF734FB687053B030BD18B5B7
:105F000083B00C4669462046FDF72AFEA8B102AAD6
:105F100001A92046FDF7EDFD78B1029A019900989C
:105F2000FDF712FA48B1029A01990098FDF718FBA3
:105F3000401E8041C043C00F00E000206075607DBE
:105F400048B169462046FDF70BFE20B1009A01A931
:105F50002046FDF72AFE04B010BD30B50C4604F112
:105F60002105C1B02878022814D1206900281CBF5F
:105F7000606900280ED08221FBF7C4FA024620692E
:105F800000236946FBF70FFA01462046FFF7C8F9E0
:105F90000120687041B030BD1CB50C4601A92046F7
:105FA000FDF7DEFD60B169462046FDF7D9FD38B149
:105FB000009A01992046FDF728FE08B1012000E073
:105FC0000020607513BD38B50C4604F12105287812
:105FD000032811D1206900281CBF616900290BD05A
:105FE000A2694AB1FDF7B0F9687028B1A269616988
:105FF0002069FDF7B5FA687031BD18B583B00C465D
:1060000002A92046FDF7ACFDC8B101A92046FDF765
:10601000A7FDA0B169462046FDF7A2FD78B1009A20
:1060200002990198FDF790F948B1009A02990198F8
:10603000FDF796FA401E8041C043C00F00E00020EB
:10604000C7E030B50C4604F12105D3B0287802280A
:1060500019DB206900281CBF6169002913D0606822
:1060600001AB02AAFBF7CDF968B1287802280198A4
:10607000CCBFA2694FF0FF32009002AB21692068CB
:10608000FCF77AFB687053B030BD10B586B00C4693
:1060900003AA05A92046FDF72CFDD0B102AA04A948
:1060A0002046FDF726FDA0B101A92046FDF767FDBA
:1060B00000280298049B039914BF019A4FF0FF3205
:1060C00000900598FCF758FB401E8041C043C00F6C
:1060D00000E000204CE070B50D4605F12104D4B07D
:1060E000207800281CBF296900291CD00228ACBFD9
:1060F0006A694FF0FF3201AE009602AB2868FCF7E8
:10610000D2FB80B10198A22824BFA1210191019A5C
:106110000298002303A9FBF746F901462846FFF73A
:10612000FFF80120607054B070BD10B586B00C4609
:1061300003AA05A92046FDF7DCFCC0B101A9204651
:10614000FDF71DFD002814BF019A4FF0FF3202A891
:10615000009004AB03990598FCF7A5FB38B1029AAF
:1061600004992046FDF751FD08B1012000E0002010
:10617000607506B010BD10B50B4603F12104207800
:1061800000281CBF1969002908D002281868ACBF74
:106190005A694FF0FF32FCF73CF9607010BD18B53A
:1061A00083B00C4601AA02A92046FDF7A2FC80B1EB
:1061B00069462046FDF7E3FC00280199029814BFC8
:1061C000009A4FF0FF32FCF724F9401E8041C04393
:1061D000C00F607504B010BD1CB50C4601A9204667
:1061E000FDF7BEFC68B169462046FDF7B9FC40B139
:1061F00000990198FCF7A4FB401E8041C043C00FEA
:1062000000E00020607513BD1CB50C4601A92046B6
:10621000FDF7A6FC90B169462046FDF7A1FC68B1E8
:10622000009901980022FEF789FB01462046FDF700
:10623000FAFC401E8041C043C00F00E000206075A2
:1062400013BD10B501F11004607C00B12068FDF7AA
:10625000EBF8A07410BD00001CB500220C460092A3
:1062600069462046FDF77CFC0CA0FBF70AFC4FF4C6
:10627000FA70FCF727F80098FDF7D6F8607513BDA3
:1062800080B5FDF71DF8BDE80240002814BF0FF2ED
:1062900014000FF22800FBF7F4BB00000D0A0D0AF2
:1062A00000000000526561642050726F7465637471
:1062B000696F6E3A204F46460D0A000052656164D0
:1062C0002050726F74656374696F6E3A204F4E0D83
:1062D0000A00000000000000963007772C610EEEE7
:1062E000BA51099919C46D078FF46A7035A563E92D
:1062F000A395649E3288DB0EA4B8DC791EE9D5E054
:1063000088D9D2972B4CB609BD7CB17E072DB8E752
:10631000911DBF906410B71DF220B06A4871B9F3A7
:10632000DE41BE847DD4DA1AEBE4DD6D51B5D4F4E0
:10633000C785D38356986C13C0A86B647AF962FD45
:10634000ECC9658A4F5C0114D96C0663633D0FFA92
:10635000F50D088DC8206E3B5E10694CE44160D598
:10636000727167A2D1E4033C47D4044BFD850DD282
:106370006BB50AA5FAA8B5356C98B242D6C9BBDB95
:1063800040F9BCACE36CD832755CDF45CF0DD6DC90
:10639000593DD1ABAC30D9263A00DE518051D7C837
:1063A0001661D0BFB5F4B42123C4B3569995BACFC2
:1063B0000FA5BDB89EB802280888055FB2D90CC6E3
:1063C00024E90BB1877C6F2F114C6858AB1D61C15C
:1063D0003D2D66B69041DC760671DB01BC20D2987B
:1063E0002A10D5EF8985B1711FB5B606A5E4BF9F08
:1063F00033D4B8E8A2C9077834F9000F8EA80996FB
:1064000018980EE1BB0D6A7F2D3D6D08976C649165
:10641000015C63E6F4516B6B62616C1CD83065857E
:106420004E0062F2ED95066C7BA5011BC1F408825B
:1064300057C40FF5C6D9B06550E9B712EAB8BE8B9C
:106440007C88B9FCDF1DDD62492DDA15F37CD38C25
:10645000654CD4FB5861B24DCE51B53A7400BCA323
:10646000E230BBD441A5DF4AD795D83D6DC4D1A455
:10647000FBF4D6D36AE96943FCD96E34468867AD2C
:10648000D0B860DA732D0444E51D03335F4C0AAACB
:10649000C97C0DDD3C710550AA41022710100BBECE
:1064A00086200CC925B56857B3856F2009D466B915
:1064B0009FE461CE0EF9DE5E98C9D9292298D0B04A
:1064C000B4A8D7C7173DB359810DB42E3B5CBDB7F7
:1064D000AD6CBAC02083B8EDB6B3BF9A0CE2B60378
:1064E0009AD2B1743947D5EAAF77D29D1526DB042D
:1064F0008316DC73120B63E3843B64943E6A6D0D78
:10650000A85A6A7A0BCF0EE49DFF099327AE000AC2
:10651000B19E077D44930FF0D2A3088768F2011E55
:10652000FEC206695D5762F7CB67658071366C19EC
:10653000E7066B6E761BD4FEE02BD3895A7ADA100D
:10654000CC4ADD676FDFB9F9F9EFBE8E43BEB717EE
:10655000D58EB060E8A3D6D67E93D1A1C4C2D83878
:1065600052F2DF4FF167BBD16757BCA6DD06B53FDE
:106570004B36B248DA2B0DD84C1B0AAFF64A03361D
:10658000607A0441C3EF60DF55DF67A8EF8E6E319C
:1065900079BE69468CB361CB1A8366BCA0D26F25E5
:1065A00036E2685295770CCC03470BBBB916022232
:1065B0002F260555BE3BBAC5280BBDB2925AB42B47
:1065C000046AB35CA7FFD7C231CFD0B58B9ED92C5C
:1065D0001DAEDE5BB0C2649B26F263EC9CA36A75C1
:1065E0000A936D02A906099C3F360EEB8567077278
:1065F00013570005824ABF95147AB8E2AE2BB17BDF
:10660000381BB60C9B8ED2920DBED5E5B7EFDC7C65
:1066100021DFDB0BD4D2D38642E2D4F1F8B3DD68BC
:106620006E83DA1FCD16BE815B26B9F6E177B06FB7
:106630007747B718E65A0888706A0FFFCA3B0666A4
:106640005C0B0111FF9E658F69AE62F8D3FF6B6131
:1066500045CF6C1678E20AA0EED20DD75483044ED3
:10666000C2B30339612667A7F71660D04D47694961
:10667000DB776E3E4A6AD1AEDC5AD6D9660BDF4074
:10668000F03BD83753AEBCA9C59EBBDE7FCFB24727
:10669000E9FFB5301CF2BDBD8AC2BACA3093B3530C
:1066A000A6A3B4240536D0BA9306D7CD2957DE5415
:1066B000BF67D9232E7A66B3B84A61C4021B685DEE
:1066C000942B6F2A37BE0BB4A18E0CC31BDF055A67
:1066D0008DEF022D41542B434D47463D313B2B431B
:1066E0005343533D2247534D223B2B434E4D493D8F
:1066F000322C302C302C302C303B2B43534D503D22
:1067000031372C3136372C302C303B2B434C495011
:106710003D313B2B4349504D55583D313B2B474D67
:10672000523B2B47534E3B0041542B4342433B2BA0
:10673000435245473F3B2B43474154543F3B2B4338
:1067400053513B2B434D47443D302C333B2B434D62
:10675000474C3D2252454320554E52454144220D5F
:10676000000000004D545320554B52000000000023
:106770007777772E756D632E75610000000000003D
:10678000000000004B59495653544152000000008C
:106790007777772E6B796976737461722E6E657474
:1067A000000000004C4946450000000000000000C9
:1067B000696E7465726E6574000000000000000070
:1067C000000000004D5453205255530000000000BB
:1067D000696E7465726E65742E6D74732E727500B9
:1067E000000000004D656761466F6E00000000000C
:1067F000696E7465726E65742E6E7700000000001D
:10680000000000004265656C696E650000000000D4
:10681000696E7465726E65742E6265656C696E650D
:106820002E72750054454C453200000000000000F7
:10683000696E7465726E65742E74656C65322E7245
:106840007500000057494E000000000000000000E5
:10685000696E7465726E65740000000000000000CF
:1068600000000000062B4D4355494400042B4449C9
:106870004400082B4D43554C4F434B00092B4D43CF
:10688000555245534554000B2B464C415348434CFD
:10689000454152000B2B464C4153485752495445F1
:1068A000000A2B464C41534852454144000A2B46AE
:1068B0004C415348434F5059000B2B5752495445B4
:1068C0004E44415441000A2B524541444E444154E8
:1068D0004100092B44454C4E44415441000A2B4190
:1068E00050504348414E474500072B4A414D5054B4
:1068F0004F00062B474D4F4445000A2B5357534931
:106900004D4341524400082B53494D4341524400EA
:10691000042B41544300072B53494D4F4646000476
:106920002B534D5300092B53494D524553455400A9
:10693000072B4D454D434C5200052B45535043000A
:10694000092B455350524553455400062B574D4F84
:10695000444500082B574E455441434300072B57ED
:106960004C5445535400082B42555354455354003E
:10697000052B54494D4500072B574E4554425200B4
:10698000000000003A4882B0016841F470010160E3
:1069900000223849086840F0010008608A600B68EE
:1069A0003548364A03400B604A6000220B6823F4E6
:1069B00080230B60CA60009201920B6843F480331D
:1069C0000B60086800F4003001900098401C0090B3
:1069D000019818B90098B0F5A04FF2D10868400CA2
:1069E00000F001000190019801283AD1086C40F0B4
:1069F000805008642248026842F4404202608B687A
:106A00008B608A681F4B42F400428A608A6842F4B5
:106A1000A0528A604B600A6842F080720A600B687C
:106A20009A01FCD5036843F4803303604268D303C2
:106A3000FCD5026842F40032026042689303FCD540
:106A400040F20570104A10608B689B089B008B60B9
:106A5000886840F002008860886800F00C00082810
:106A6000FAD14FF000600949086002B07047000099
:106A700088ED00E000380240FFFFF6FE10300024F1
:106A80000070004008604007003C024008ED00E054
:106A9000795D020800000000E35D020800000000CC
:106AA0001B5E0208000000001F5E020800000000DC
:106AB000715E02080A000000BF5E020806000000C6
:106AC0005B5F02080A000000C75F02082A0000009E
:106AD0004360020825000000D7600208090000009A
:106AE000776102080900000043620208020000000A
:106AF0008162020802000000A14F020802000300A8
:106B0000F14F0208020003001950020802000300BE
:106B10007750020801000300B15002080000030092
:106B20000151020825000300D350020800000300B1
:106B3000AB560208000000003910020801000400F2
:106B40007D1002080A000400BD10020802000400C3
:106B50000D11020805000400CD56020806000000D1
:106B6000B559020806000000295A02080A00000070
:106B7000DD5902080A00000000480040000004003F
:106B8000000C000400C201000000000000000C0026
:106B900000000000000802400400000000040000A3
:106BA000020200010A070000000802400400000081
:106BB00000080000020200010B07000000000000B6
:106BC00000000000000000000000000000000000C5
:106BD00058600240286002400000000800000008E1
:106BE000000E00000080001800500040000010005F
:106BF00000040004802500000000000000000C00DC
:106C00000000000000080240040000000010000026
:106C1000020200010C080000000C02400800000005
:106C20000400000002020001020800000000000051
:106C30000000000000000000000000000000000054
:106C4000B860024010600240000000080000000828
:106C5000002F000000800028015F00042B495044F1
:106C600000082B43495053454E44000B2B434950D9
:106C700053454E4442554600052B5541525400029F
:106C8000453000072B43574D4F444500072B4349E0
:106C9000504D5558000A2B434950534552564552C2
:106CA00000092B434950535441525400092B434986
:106CB00050434C4F534500062B43574A4150000662
:106CC0002B43574C415000062B435753415000066D
:106CD0002B43574C494600072B4357444843500029
:106CE0000B2B43574155544F434F4E4E000A2B43F5
:106CF00049505354414D414300072B43495053548D
:106D00004100062B4349504150000A2B4349505340
:106D1000544154555300062B434946535200052B0A
:106D200050494E47000000009D5D02080000000031
:106D3000075E0208000000001D5E0208000000005F
:106D40004B5E0208000000008F5E02080000000099
:106D5000FF5E020800000000995F020800000000CA
:106D6000FB5F0208000000008B60020800000000CA
:106D70002B610208000000009F6102080000000073
:106D8000D96102080000000009620208000000004A
:106D90005962020800000000054D435549440003B4
:106DA00044494400074D43554C4F434B00084D4365
:106DB0005552455345540005464C434C5200054638
:106DC0004C5752490004464C52440006464C434F2F
:106DD000505900054E4457524900044E4452440055
:106DE000054E4444454C00064E44494E4954000368
:106DF0004352430006415050434E470000000000FC
:106E0000054552524F5200024F4B000572656164B6
:106E1000790007434F4E4E4543540006434C4F53B1
:106E20004544000753454E44204F4B00044641491A
:106E30004C00054E6F2041500013466174616C2078
:106E4000657863657074696F6E20283029000000D2
:106E5000006E0208586C0208A46F0208004002404D
:106E600000000000010203040102030406070809F0
:106E700000000000E0000120F400012000000000FC
:106E8000F000012000000000AC0001200000000024
:106E900010B5074979441831064C7C44163404E097
:106EA0000A68081D114488470146A142F8D110BD67
:106EB0002C0000004C0000004EF68851CEF200017C
:106EC000086840F470000860BFF34F8FBFF36F8F06
:106ED0004FF00070E1EE100A70470000B3C6FFFFEC
:106EE000B80001004000002000000000E3C6FFFFE2
:106EF000400000005CFFFFFF0000002000000000D9
:106F000010B5FEF7D5FD054C204600F009F8FEF758
:106F10003CFE204600F00AF8F9E70000F4000120EA
:106F200002884FF6FE710A400280704770470000E9
:106F300000F00DF8002801D0FFF7AAFFAFF30080A2
:106F40000020AFF30080FFF7DBFF00F002F8012024
:106F5000704700F001B800000746384600F002F81C
:106F6000FBE7000080B5AFF30080024A1100182053
:106F7000ABBEFBE7260002000148804701480047FE
:106F800085690208996F02087047FEE7FEE7FEE791
:106F9000FEE7704770477047AFF30080FFF78CFF44
:106FA000FFF7C6FF232A3A2B7E000000FFF7FEBF43
:106FB000FFF7FEBFFFF7FEBFFFF7FEBFFFF7FEBF05
:106FC000FFF7FEBFFFF7FEBFFFF7FEBFFFF7FEBFF5
:106FD000FFF7FEBFFFF7FEBFFFF7FEBFFFF7FEBFE5
:106FE000FFF7FEBFFFF7FEBFFFF7FEBFFFF7FEBFD5
:106FF000FFF7FEBFFFF7FEBFFFF7FEBFFFF7FEBFC5
:10700000FFF7FEBFFFF7FEBFFFF7FEBFFFF7FEBFB4
:10701000FFF7FEBFFFF7FEBFFFF7FEBFFFF7FEBFA4
:10702000FFF7FEBFFFF7FEBFFFF7FEBFFFF7FEBF94
:10703000FFF7FEBFFFF7FEBFFFF7FEBFFFF7FEBF84
:10704000FFF7FEBFFFF7FEBFFFF7FEBFFFF7FEBF74
:10705000FFF7FEBFFFF7FEBFFFF7FEBFFFF7FEBF64
:10706000FFF7FEBFFFF7FEBFFFF7FEBFFFF7FEBF54
:10707000FFF7FEBFFFF7FEBFFFF7FEBFFFF7FEBF44
:10708000FFF7FEBFFFF7FEBFFFF7FEBFFFF7FEBF34
:10709000FFF7FEBFFFF7FEBFFFF7FEBFFFF7FEBF24
:1070A000FFF7FEBFFFF7FEBFFFF7FEBFFFF7FEBF14
:1070B000FFF7FEBFFFF7FEBFFFF7FEBFFFF7FEBF04
:1070C000FFF7FEBFFFF7FEBFFFF7FEBFFFF7FEBFF4
:1070D000FFF7FEBFFFF7FEBFFFF7FEBFFFF7FEBFE4
:1070E000FFF7FEBFFFF7FEBFFFF7FEBFFFF7FEBFD4
:1070F000FFF7FEBFFFF7FEBFFFF7FEBFFFF7FEBFC4
:08710000FFF7FEBFFFF7FEBF21
:0400000508026F99E5
:00000001FF
