###############################################################################
#
# IAR ELF Linker V8.40.1.212/W32 for ARM                  03/Feb/2020  13:15:44
# Copyright 2007-2019 IAR Systems AB.
#
#    Output file  =
#        C:\Users\Usver\Desktop\myCM4\HOUSEWELL\wt401nc\_out_\bin\wt401nc.out
#    Map file     =
#        C:\Users\Usver\Desktop\myCM4\HOUSEWELL\wt401nc\_out_\list\wt401nc.map
#    Command line =
#        -f C:\Users\Usver\AppData\Local\Temp\EW539F.tmp
#        (C:\Users\Usver\Desktop\myCM4\HOUSEWELL\wt401nc\_out_\obj\misc.o
#        C:\Users\Usver\Desktop\myCM4\HOUSEWELL\wt401nc\_out_\obj\my_esp.o
#        C:\Users\Usver\Desktop\myCM4\HOUSEWELL\wt401nc\_out_\obj\my_lib.o
#        C:\Users\Usver\Desktop\myCM4\HOUSEWELL\wt401nc\_out_\obj\my_rtctl.o
#        C:\Users\Usver\Desktop\myCM4\HOUSEWELL\wt401nc\_out_\obj\my_simcom.o
#        C:\Users\Usver\Desktop\myCM4\HOUSEWELL\wt401nc\_out_\obj\my_stdcmdprocs.o
#        C:\Users\Usver\Desktop\myCM4\HOUSEWELL\wt401nc\_out_\obj\my_stm32.o
#        C:\Users\Usver\Desktop\myCM4\HOUSEWELL\wt401nc\_out_\obj\my_stm32f4.o
#        C:\Users\Usver\Desktop\myCM4\HOUSEWELL\wt401nc\_out_\obj\r_crc32.o
#        C:\Users\Usver\Desktop\myCM4\HOUSEWELL\wt401nc\_out_\obj\r_gnss.o
#        C:\Users\Usver\Desktop\myCM4\HOUSEWELL\wt401nc\_out_\obj\r_rtc.o
#        C:\Users\Usver\Desktop\myCM4\HOUSEWELL\wt401nc\_out_\obj\r_vap3.o
#        C:\Users\Usver\Desktop\myCM4\HOUSEWELL\wt401nc\_out_\obj\startup_stm32f427_437xx.o
#        C:\Users\Usver\Desktop\myCM4\HOUSEWELL\wt401nc\_out_\obj\stm32f4xx_dma.o
#        C:\Users\Usver\Desktop\myCM4\HOUSEWELL\wt401nc\_out_\obj\stm32f4xx_exti.o
#        C:\Users\Usver\Desktop\myCM4\HOUSEWELL\wt401nc\_out_\obj\stm32f4xx_flash.o
#        C:\Users\Usver\Desktop\myCM4\HOUSEWELL\wt401nc\_out_\obj\stm32f4xx_gpio.o
#        C:\Users\Usver\Desktop\myCM4\HOUSEWELL\wt401nc\_out_\obj\stm32f4xx_it.o
#        C:\Users\Usver\Desktop\myCM4\HOUSEWELL\wt401nc\_out_\obj\stm32f4xx_iwdg.o
#        C:\Users\Usver\Desktop\myCM4\HOUSEWELL\wt401nc\_out_\obj\stm32f4xx_pwr.o
#        C:\Users\Usver\Desktop\myCM4\HOUSEWELL\wt401nc\_out_\obj\stm32f4xx_rcc.o
#        C:\Users\Usver\Desktop\myCM4\HOUSEWELL\wt401nc\_out_\obj\stm32f4xx_rng.o
#        C:\Users\Usver\Desktop\myCM4\HOUSEWELL\wt401nc\_out_\obj\stm32f4xx_rtc.o
#        C:\Users\Usver\Desktop\myCM4\HOUSEWELL\wt401nc\_out_\obj\stm32f4xx_sdio.o
#        C:\Users\Usver\Desktop\myCM4\HOUSEWELL\wt401nc\_out_\obj\stm32f4xx_spi.o
#        C:\Users\Usver\Desktop\myCM4\HOUSEWELL\wt401nc\_out_\obj\stm32f4xx_syscfg.o
#        C:\Users\Usver\Desktop\myCM4\HOUSEWELL\wt401nc\_out_\obj\stm32f4xx_tim.o
#        C:\Users\Usver\Desktop\myCM4\HOUSEWELL\wt401nc\_out_\obj\stm32f4xx_usart.o
#        C:\Users\Usver\Desktop\myCM4\HOUSEWELL\wt401nc\_out_\obj\system_stm32f4xx.o
#        C:\Users\Usver\Desktop\myCM4\HOUSEWELL\wt401nc\_out_\obj\wt401nc_conf.o
#        C:\Users\Usver\Desktop\myCM4\HOUSEWELL\wt401nc\_out_\obj\wt401nc_main.o
#        --no_out_extension -o
#        C:\Users\Usver\Desktop\myCM4\HOUSEWELL\wt401nc\_out_\bin\wt401nc.out
#        --redirect _Printf=_PrintfFullNoMb --redirect _Scanf=_ScanfFullNoMb
#        --strip --map
#        C:\Users\Usver\Desktop\myCM4\HOUSEWELL\wt401nc\_out_\list\wt401nc.map
#        --config
#        C:\Users\Usver\Desktop\myCM4\HOUSEWELL\wt401nc\sources\sw4xx_1M.icf
#        --semihosting --entry __iar_program_start --vfe --text_out locale)
#
###############################################################################

*******************************************************************************
*** RUNTIME MODEL ATTRIBUTES
***

CppFlavor        = *
__CPP_Exceptions = Disabled
__CPP_Language   = C++14
__SystemLibrary  = DLib
__dlib_version   = 6


*******************************************************************************
*** HEAP SELECTION
***

The basic heap was selected because no calls to memory allocation
functions were found in the application outside of system library
functions, and there are calls to deallocation functions in the
application.


*******************************************************************************
*** PLACEMENT SUMMARY
***

"A0":  place at address 0x800'0000 { ro section .intvec };
"P1":  place in [from 0x800'41ac to 0x80f'ffff] { ro };
define block CSTACK with size = 12K, alignment = 8 { };
define block HEAP with size = 256, alignment = 8 { };
"P2":  place in [from 0x2000'0000 to 0x2002'0000] {
          rw, block CSTACK, block HEAP };
initialize by copy { rw };

  Section            Kind         Address      Size  Object
  -------            ----         -------      ----  ------
"A0":                                         0x1ac
  .intvec            ro code   0x800'0000     0x1ac  startup_stm32f427_437xx.o [1]
                             - 0x800'01ac     0x1ac

"P1":                                        0x6f5c
  .text              ro code   0x800'41ac    0x1074  my_esp.o [1]
  .text              ro code   0x800'5220     0xfe8  my_lib.o [1]
  .text              ro code   0x800'6208     0xb8c  my_stm32.o [1]
  .text              ro code   0x800'6d94     0x7f4  my_stm32f4.o [1]
  .text              ro code   0x800'7588       0x6  ABImemclr.o [4]
  .text              ro code   0x800'758e      0x3a  zero_init3.o [4]
  .text              ro code   0x800'75c8       0x6  ABImemclr4.o [4]
  .text              ro code   0x800'75ce      0x2e  copy_init3.o [4]
  .text              ro code   0x800'75fc      0xac  stm32f4xx_gpio.o [1]
  .text              ro code   0x800'76a8     0x5ac  r_vap3.o [1]
  .text              ro code   0x800'7c54     0x154  stm32f4xx_rcc.o [1]
  .text              ro code   0x800'7da8      0x8c  misc.o [1]
  .text              ro code   0x800'7e34      0x3c  stm32f4xx_rng.o [1]
  .text              ro code   0x800'7e70      0x34  stm32f4xx_iwdg.o [1]
  .text              ro code   0x800'7ea4      0x28  stm32f4xx_pwr.o [1]
  .text              ro code   0x800'7ecc     0x2c0  stm32f4xx_rtc.o [1]
  .text              ro code   0x800'818c     0x20c  stm32f4xx_usart.o [1]
  .text              ro code   0x800'8398     0x240  stm32f4xx_dma.o [1]
  .text              ro code   0x800'85d8     0x228  stm32f4xx_flash.o [1]
  .text              ro code   0x800'8800      0x5e  ABImemset.o [4]
  .rodata            const     0x800'885e       0x1  unwind_debug.o [5]
  .text              ro code   0x800'8860      0x32  ABImemset48.o [4]
  .text              ro code   0x800'8894      0xa6  ABImemcpy.o [4]
  .text              ro code   0x800'893c      0x34  r_crc32.o [1]
  .text              ro code   0x800'8970      0x68  memcmp.o [4]
  .text              ro code   0x800'89d8     0x78c  my_simcom.o [1]
  .text              ro code   0x800'9164     0x4e0  my_rtctl.o [1]
  .text              ro code   0x800'9644     0x734  wt401nc_conf.o [1]
  .text              ro code   0x800'9d78     0x55c  my_stdcmdprocs.o [1]
  .rodata            const     0x800'a2d4     0x400  r_crc32.o [1]
  .rodata            const     0x800'a6d4     0x190  my_simcom.o [1]
  .rodata            const     0x800'a864     0x120  wt401nc_main.o [1]
  .text              ro code   0x800'a984     0x10c  system_stm32f4xx.o [1]
  .rodata            const     0x800'aa90      0xe8  wt401nc_main.o [1]
  .rodata            const     0x800'ab78      0xe0  wt401nc_conf.o [1]
  .rodata            const     0x800'ac58      0xd0  my_esp.o [1]
  .rodata            const     0x800'ad28      0x70  wt401nc_main.o [1]
  .rodata            const     0x800'ad98      0x68  wt401nc_main.o [1]
  .rodata            const     0x800'ae00      0x50  my_esp.o [1]
  Initializer bytes  const     0x800'ae50      0x40  <for P2-1>
  .text              ro code   0x800'ae90      0x28  data_init.o [4]
  .text              ro code   0x800'aeb8      0x22  fpinit_M.o [3]
  .iar.init_table    const     0x800'aedc      0x24  - Linker created -
  .text              ro code   0x800'af00      0x20  wt401nc_main.o [1]
  .text              ro code   0x800'af20       0xe  r_rtc.o [1]
  .text              ro code   0x800'af30      0x1e  cmain.o [4]
  .text              ro code   0x800'af4e       0x4  low_level_init.o [2]
  .text              ro code   0x800'af52       0x4  exit.o [2]
  .text              ro code   0x800'af58       0xa  cexit.o [4]
  .text              ro code   0x800'af64      0x14  exit.o [5]
  .text              ro code   0x800'af78      0x10  startup_stm32f427_437xx.o [1]
  .text              ro code   0x800'af88      0x10  stm32f4xx_it.o [1]
  .text              ro code   0x800'af98       0xc  cstartup_M.o [4]
  .rodata            const     0x800'afa4       0x8  my_rtctl.o [1]
  .text              ro code   0x800'afac       0x4  startup_stm32f427_437xx.o [1]
  .text              ro code   0x800'afb0       0x4  startup_stm32f427_437xx.o [1]
  .text              ro code   0x800'afb4       0x4  startup_stm32f427_437xx.o [1]
  .text              ro code   0x800'afb8       0x4  startup_stm32f427_437xx.o [1]
  .text              ro code   0x800'afbc       0x4  startup_stm32f427_437xx.o [1]
  .text              ro code   0x800'afc0       0x4  startup_stm32f427_437xx.o [1]
  .text              ro code   0x800'afc4       0x4  startup_stm32f427_437xx.o [1]
  .text              ro code   0x800'afc8       0x4  startup_stm32f427_437xx.o [1]
  .text              ro code   0x800'afcc       0x4  startup_stm32f427_437xx.o [1]
  .text              ro code   0x800'afd0       0x4  startup_stm32f427_437xx.o [1]
  .text              ro code   0x800'afd4       0x4  startup_stm32f427_437xx.o [1]
  .text              ro code   0x800'afd8       0x4  startup_stm32f427_437xx.o [1]
  .text              ro code   0x800'afdc       0x4  startup_stm32f427_437xx.o [1]
  .text              ro code   0x800'afe0       0x4  startup_stm32f427_437xx.o [1]
  .text              ro code   0x800'afe4       0x4  startup_stm32f427_437xx.o [1]
  .text              ro code   0x800'afe8       0x4  startup_stm32f427_437xx.o [1]
  .text              ro code   0x800'afec       0x4  startup_stm32f427_437xx.o [1]
  .text              ro code   0x800'aff0       0x4  startup_stm32f427_437xx.o [1]
  .text              ro code   0x800'aff4       0x4  startup_stm32f427_437xx.o [1]
  .text              ro code   0x800'aff8       0x4  startup_stm32f427_437xx.o [1]
  .text              ro code   0x800'affc       0x4  startup_stm32f427_437xx.o [1]
  .text              ro code   0x800'b000       0x4  startup_stm32f427_437xx.o [1]
  .text              ro code   0x800'b004       0x4  startup_stm32f427_437xx.o [1]
  .text              ro code   0x800'b008       0x4  startup_stm32f427_437xx.o [1]
  .text              ro code   0x800'b00c       0x4  startup_stm32f427_437xx.o [1]
  .text              ro code   0x800'b010       0x4  startup_stm32f427_437xx.o [1]
  .text              ro code   0x800'b014       0x4  startup_stm32f427_437xx.o [1]
  .text              ro code   0x800'b018       0x4  startup_stm32f427_437xx.o [1]
  .text              ro code   0x800'b01c       0x4  startup_stm32f427_437xx.o [1]
  .text              ro code   0x800'b020       0x4  startup_stm32f427_437xx.o [1]
  .text              ro code   0x800'b024       0x4  startup_stm32f427_437xx.o [1]
  .text              ro code   0x800'b028       0x4  startup_stm32f427_437xx.o [1]
  .text              ro code   0x800'b02c       0x4  startup_stm32f427_437xx.o [1]
  .text              ro code   0x800'b030       0x4  startup_stm32f427_437xx.o [1]
  .text              ro code   0x800'b034       0x4  startup_stm32f427_437xx.o [1]
  .text              ro code   0x800'b038       0x4  startup_stm32f427_437xx.o [1]
  .text              ro code   0x800'b03c       0x4  startup_stm32f427_437xx.o [1]
  .text              ro code   0x800'b040       0x4  startup_stm32f427_437xx.o [1]
  .text              ro code   0x800'b044       0x4  startup_stm32f427_437xx.o [1]
  .text              ro code   0x800'b048       0x4  startup_stm32f427_437xx.o [1]
  .text              ro code   0x800'b04c       0x4  startup_stm32f427_437xx.o [1]
  .text              ro code   0x800'b050       0x4  startup_stm32f427_437xx.o [1]
  .text              ro code   0x800'b054       0x4  startup_stm32f427_437xx.o [1]
  .text              ro code   0x800'b058       0x4  startup_stm32f427_437xx.o [1]
  .text              ro code   0x800'b05c       0x4  startup_stm32f427_437xx.o [1]
  .text              ro code   0x800'b060       0x4  startup_stm32f427_437xx.o [1]
  .text              ro code   0x800'b064       0x4  startup_stm32f427_437xx.o [1]
  .text              ro code   0x800'b068       0x4  startup_stm32f427_437xx.o [1]
  .text              ro code   0x800'b06c       0x4  startup_stm32f427_437xx.o [1]
  .text              ro code   0x800'b070       0x4  startup_stm32f427_437xx.o [1]
  .text              ro code   0x800'b074       0x4  startup_stm32f427_437xx.o [1]
  .text              ro code   0x800'b078       0x4  startup_stm32f427_437xx.o [1]
  .text              ro code   0x800'b07c       0x4  startup_stm32f427_437xx.o [1]
  .text              ro code   0x800'b080       0x4  startup_stm32f427_437xx.o [1]
  .text              ro code   0x800'b084       0x4  startup_stm32f427_437xx.o [1]
  .text              ro code   0x800'b088       0x4  startup_stm32f427_437xx.o [1]
  .text              ro code   0x800'b08c       0x4  startup_stm32f427_437xx.o [1]
  .text              ro code   0x800'b090       0x4  startup_stm32f427_437xx.o [1]
  .text              ro code   0x800'b094       0x4  startup_stm32f427_437xx.o [1]
  .text              ro code   0x800'b098       0x4  startup_stm32f427_437xx.o [1]
  .text              ro code   0x800'b09c       0x4  startup_stm32f427_437xx.o [1]
  .text              ro code   0x800'b0a0       0x4  startup_stm32f427_437xx.o [1]
  .text              ro code   0x800'b0a4       0x4  startup_stm32f427_437xx.o [1]
  .text              ro code   0x800'b0a8       0x4  startup_stm32f427_437xx.o [1]
  .text              ro code   0x800'b0ac       0x4  startup_stm32f427_437xx.o [1]
  .text              ro code   0x800'b0b0       0x4  startup_stm32f427_437xx.o [1]
  .text              ro code   0x800'b0b4       0x4  startup_stm32f427_437xx.o [1]
  .text              ro code   0x800'b0b8       0x4  startup_stm32f427_437xx.o [1]
  .text              ro code   0x800'b0bc       0x4  startup_stm32f427_437xx.o [1]
  .text              ro code   0x800'b0c0       0x4  startup_stm32f427_437xx.o [1]
  .text              ro code   0x800'b0c4       0x4  startup_stm32f427_437xx.o [1]
  .text              ro code   0x800'b0c8       0x4  startup_stm32f427_437xx.o [1]
  .text              ro code   0x800'b0cc       0x4  startup_stm32f427_437xx.o [1]
  .text              ro code   0x800'b0d0       0x4  startup_stm32f427_437xx.o [1]
  .text              ro code   0x800'b0d4       0x4  startup_stm32f427_437xx.o [1]
  .text              ro code   0x800'b0d8       0x4  startup_stm32f427_437xx.o [1]
  .text              ro code   0x800'b0dc       0x4  startup_stm32f427_437xx.o [1]
  .text              ro code   0x800'b0e0       0x4  startup_stm32f427_437xx.o [1]
  .text              ro code   0x800'b0e4       0x4  startup_stm32f427_437xx.o [1]
  .text              ro code   0x800'b0e8       0x4  startup_stm32f427_437xx.o [1]
  .text              ro code   0x800'b0ec       0x4  startup_stm32f427_437xx.o [1]
  .text              ro code   0x800'b0f0       0x4  startup_stm32f427_437xx.o [1]
  .text              ro code   0x800'b0f4       0x4  startup_stm32f427_437xx.o [1]
  .text              ro code   0x800'b0f8       0x4  startup_stm32f427_437xx.o [1]
  .text              ro code   0x800'b0fc       0x4  startup_stm32f427_437xx.o [1]
  .text              ro code   0x800'b100       0x4  startup_stm32f427_437xx.o [1]
  .text              ro code   0x800'b104       0x4  startup_stm32f427_437xx.o [1]
  .rodata            const     0x800'b108       0x0  zero_init3.o [4]
  .rodata            const     0x800'b108       0x0  copy_init3.o [4]
                             - 0x800'b108    0x6f5c

"P2", part 1 of 3:                             0x40
  P2-1                        0x2000'0000      0x40  <Init block>
    .data            inited   0x2000'0000       0x8  my_esp.o [1]
    .data            inited   0x2000'0008       0x4  my_rtctl.o [1]
    .data            inited   0x2000'000c       0x4  my_stm32f4.o [1]
    .data            inited   0x2000'0010      0x10  stm32f4xx_rcc.o [1]
    .data            inited   0x2000'0020      0x20  wt401nc_main.o [1]
                            - 0x2000'0040      0x40

"P2", part 2 of 3:                         0x1'00b8
  .bss               zero     0x2000'0040  0x1'0000  wt401nc_main.o [1]
  .bss               zero     0x2001'0040      0x6c  wt401nc_conf.o [1]
  .bss               zero     0x2001'00ac      0x18  wt401nc_main.o [1]
  .bss               zero     0x2001'00c4       0x8  my_stm32.o [1]
  .bss               zero     0x2001'00cc       0x8  my_stm32.o [1]
  .bss               zero     0x2001'00d4       0x4  my_lib.o [1]
  .bss               zero     0x2001'00d8       0x4  my_lib.o [1]
  .bss               zero     0x2001'00dc       0x4  wt401nc_main.o [1]
  .bss               zero     0x2001'00e0       0x4  wt401nc_main.o [1]
  .bss               zero     0x2001'00e4       0x4  wt401nc_main.o [1]
  .bss               zero     0x2001'00e8       0x4  wt401nc_main.o [1]
  .bss               zero     0x2001'00ec       0x4  wt401nc_main.o [1]
  .bss               zero     0x2001'00f0       0x4  wt401nc_main.o [1]
  .bss               zero     0x2001'00f4       0x2  wt401nc_main.o [1]
  .bss               zero     0x2001'00f6       0x1  my_lib.o [1]
  .bss               zero     0x2001'00f7       0x1  my_stm32f4.o [1]
                            - 0x2001'00f8  0x1'00b8

"P2", part 3 of 3:                           0x3000
  CSTACK                      0x2001'00f8    0x3000  <Block>
    CSTACK           uninit   0x2001'00f8    0x3000  <Block tail>
                            - 0x2001'30f8    0x3000

Unused ranges:

         From           To      Size
         ----           --      ----
   0x800'b108   0x80f'ffff  0xf'4ef8
  0x2001'30f8  0x2002'0000    0xcf09


*******************************************************************************
*** INIT TABLE
***

          Address      Size
          -------      ----
Zero (__iar_zero_init3)
    1 destination range, total size 0x1'00b8:
          0x2000'0040  0x1'00b8

Copy (__iar_copy_init3)
    1 source range, total size 0x40:
           0x800'ae50      0x40
    1 destination range, total size 0x40:
          0x2000'0000      0x40



*******************************************************************************
*** MODULE SUMMARY
***

    Module                     ro code  ro data  rw data
    ------                     -------  -------  -------
command line/config:
    ----------------------------------------------------
    Total:

C:\Users\Usver\Desktop\myCM4\HOUSEWELL\wt401nc\_out_\obj: [1]
    misc.o                         140
    my_esp.o                     4'212      296        8
    my_lib.o                     4'072                 9
    my_rtctl.o                   1'248       12        4
    my_simcom.o                  1'932      400
    my_stdcmdprocs.o             1'372
    my_stm32.o                   2'956                16
    my_stm32f4.o                 2'036        4        5
    r_crc32.o                       52    1'024
    r_rtc.o                         14
    r_vap3.o                     1'452
    startup_stm32f427_437xx.o      792
    stm32f4xx_dma.o                576
    stm32f4xx_flash.o              552
    stm32f4xx_gpio.o               172
    stm32f4xx_it.o                  16
    stm32f4xx_iwdg.o                52
    stm32f4xx_pwr.o                 40
    stm32f4xx_rcc.o                340       16       16
    stm32f4xx_rng.o                 60
    stm32f4xx_rtc.o                704
    stm32f4xx_usart.o              524
    system_stm32f4xx.o             268
    wt401nc_conf.o               1'844      224      108
    wt401nc_main.o                  32      768   65'618
    ----------------------------------------------------
    Total:                      25'458    2'744   65'784

dl7M_tln.a: [2]
    exit.o                           4
    low_level_init.o                 4
    ----------------------------------------------------
    Total:                           8

m7M_tls.a: [3]
    fpinit_M.o                      34
    ----------------------------------------------------
    Total:                          34

rt7M_tl.a: [4]
    ABImemclr.o                      6
    ABImemclr4.o                     6
    ABImemcpy.o                    166
    ABImemset.o                     94
    ABImemset48.o                   50
    cexit.o                         10
    cmain.o                         30
    copy_init3.o                    46
    cstartup_M.o                    12
    data_init.o                     40
    memcmp.o                       104
    zero_init3.o                    58
    ----------------------------------------------------
    Total:                         622

shb_l.a: [5]
    exit.o                          20
    unwind_debug.o                            1
    ----------------------------------------------------
    Total:                          20        1

    Gaps                            11        2
    Linker created                           36   12'288
--------------------------------------------------------
    Grand Total:                26'153    2'783   78'072


*******************************************************************************
*** ENTRY LIST
***

Entry                       Address      Size  Type      Object
-----                       -------      ----  ----      ------
.iar.init_table$$Base    0x800'aedc             --   Gb  - Linker created -
.iar.init_table$$Limit   0x800'af00             --   Gb  - Linker created -
?main                    0x800'af31            Code  Gb  cmain.o [4]
APBAHBPrescTable        0x2000'0010      0x10  Data  Lc  stm32f4xx_rcc.o [1]
APPCTX_TABLE            0x2000'0020      0x20  Data  Gb  wt401nc_main.o [1]
AddStr                   0x800'58f7      0x34  Code  Gb  my_lib.o [1]
AppAddress               0x800'69d7       0x6  Code  Gb  my_stm32.o [1]
App_Change               0x800'7429      0xdc  Code  Gb  my_stm32f4.o [1]
Arr32NEqual              0x800'5301      0x22  Code  Gb  my_lib.o [1]
Arr32NFill               0x800'5323      0x16  Code  Gb  my_lib.o [1]
AssignAppVTOR            0x800'69f3      0x2c  Code  Gb  my_stm32.o [1]
AssignCfgBlock           0x800'6ac5      0xae  Code  Gb  my_stm32.o [1]
AssignPostLogMessage     0x800'5a6d       0x8  Code  Gb  my_lib.o [1]
AssignStr                0x800'58bb      0x18  Code  Gb  my_lib.o [1]
AssignVTORLength         0x800'69e3      0x10  Code  Gb  my_stm32.o [1]
BCGetIntPar              0x800'7b7f      0x1e  Code  Gb  r_vap3.o [1]
BCGetParPtr              0x800'7af3      0x6e  Code  Gb  r_vap3.o [1]
BCGetUIntPar             0x800'7b61      0x1e  Code  Gb  r_vap3.o [1]
BCHAppChange             0x800'a259      0x28  Code  Gb  my_stdcmdprocs.o [1]
BCHCRC                   0x800'a209      0x3a  Code  Gb  my_stdcmdprocs.o [1]
BCHDeleteNamedData       0x800'a19f      0x34  Code  Gb  my_stdcmdprocs.o [1]
BCHDeviceID              0x800'9e07      0x14  Code  Gb  my_stdcmdprocs.o [1]
BCHFlashClear            0x800'9e8f      0x30  Code  Gb  my_stdcmdprocs.o [1]
BCHFlashCopy             0x800'9ffb      0x48  Code  Gb  my_stdcmdprocs.o [1]
BCHFlashRead             0x800'9f99      0x2e  Code  Gb  my_stdcmdprocs.o [1]
BCHFlashWrite            0x800'9eff      0x5c  Code  Gb  my_stdcmdprocs.o [1]
BCHInitNamedData         0x800'a1d9      0x30  Code  Gb  my_stdcmdprocs.o [1]
BCHMCUID                 0x800'9d9d      0x46  Code  Gb  my_stdcmdprocs.o [1]
BCHMCULock               0x800'9e1d       0x2  Code  Gb  my_stdcmdprocs.o [1]
BCHMCUReset              0x800'9e4b      0x1a  Code  Gb  my_stdcmdprocs.o [1]
BCHReadNamedData         0x800'a12b      0x46  Code  Gb  my_stdcmdprocs.o [1]
BCHWriteNamedData        0x800'a08b      0x4c  Code  Gb  my_stdcmdprocs.o [1]
BCPutParPtr              0x800'7bab      0x60  Code  Gb  r_vap3.o [1]
BCPutStrPar              0x800'7c0b      0x1c  Code  Gb  r_vap3.o [1]
BCPutUIntPar             0x800'7c27      0x1a  Code  Gb  r_vap3.o [1]
BINCMD_HANDLERS          0x800'ad28      0x70  Data  Gb  wt401nc_main.o [1]
BINCMD_NAMES             0x800'ad98      0x68  Data  Gb  wt401nc_main.o [1]
BINCMD_STATES           0x2000'0008       0x4  Data  Gb  my_rtctl.o [1]
Backup_Config            0x800'6f2d       0x4  Code  Gb  my_stm32f4.o [1]
Bin2HexStrZ              0x800'53a7      0x5c  Code  Gb  my_lib.o [1]
BkpMemAlloc              0x800'7415      0x12  Code  Gb  my_stm32f4.o [1]
BusFault_Handler         0x800'af8f       0x2  Code  Gb  stm32f4xx_it.o [1]
CSTACK$$Base            0x2001'00f8             --   Gb  - Linker created -
CSTACK$$Limit           0x2001'30f8             --   Gb  - Linker created -
CharChange               0x800'5857      0x2a  Code  Gb  my_lib.o [1]
CharPosEx                0x800'57f7      0x48  Code  Gb  my_lib.o [1]
ClearFieldStatus         0x800'6349      0x16  Code  Gb  my_stm32.o [1]
DMA1_Stream3_IRQHandler
                         0x800'9651       0x6  Code  Gb  wt401nc_conf.o [1]
DMA1_Stream7_IRQHandler
                         0x800'9657       0x4  Code  Gb  wt401nc_conf.o [1]
DMA_ClearITPendingBit    0x800'8557      0x1a  Code  Gb  stm32f4xx_dma.o [1]
DMA_Cmd                  0x800'84cb      0x16  Code  Gb  stm32f4xx_dma.o [1]
DMA_DeInit               0x800'8399      0xe0  Code  Gb  stm32f4xx_dma.o [1]
DMA_GetCurrDataCounter   0x800'84e1       0x6  Code  Gb  stm32f4xx_dma.o [1]
DMA_GetITStatus          0x800'8515      0x42  Code  Gb  stm32f4xx_dma.o [1]
DMA_ITConfig             0x800'84e7      0x2e  Code  Gb  stm32f4xx_dma.o [1]
DMA_Init                 0x800'8479      0x52  Code  Gb  stm32f4xx_dma.o [1]
DebugMon_Handler         0x800'af95       0x2  Code  Gb  stm32f4xx_it.o [1]
DecodeBase64             0x800'7951      0x9e  Code  Gb  r_vap3.o [1]
DecodeBase64Commands     0x800'94c5      0x8e  Code  Gb  my_rtctl.o [1]
Delay                    0x800'62c5       0xc  Code  Gb  my_stm32.o [1]
DeleteNamedIdxData       0x800'6413      0x1e  Code  Gb  my_stm32.o [1]
DeviceID                 0x800'6945      0x24  Code  Gb  my_stm32.o [1]
DispatchTextCmd          0x800'9165     0x104  Code  Gb  my_rtctl.o [1]
DoDisconnLink            0x800'4449      0x54  Code  Gb  my_esp.o [1]
ESP_ANSWERS             0x2000'0000       0x4  Data  Gb  my_esp.o [1]
ESP_AddLink              0x800'4659      0x92  Code  Gb  my_esp.o [1]
ESP_AssignTransLink      0x800'46eb       0x4  Code  Gb  my_esp.o [1]
ESP_COMMANDS            0x2000'0004       0x4  Data  Gb  my_esp.o [1]
ESP_ENB                  0x800'9d50      0x14  Data  Gb  wt401nc_conf.o [1]
ESP_ENDS                 0x800'4650       0x8  Data  Gb  my_esp.o [1]
ESP_INIT_CMDS            0x800'5214       0xc  Data  Gb  my_esp.o [1]
ESP_Init                 0x800'41ad      0xf8  Code  Gb  my_esp.o [1]
ESP_PRG                  0x800'9d64      0x14  Data  Gb  wt401nc_conf.o [1]
ESP_Process              0x800'449d     0x1a8  Code  Gb  my_esp.o [1]
EncodeBase64             0x800'78e1      0x70  Code  Gb  r_vap3.o [1]
EspCheckConnections      0x800'4ee5      0x8e  Code  Gb  my_esp.o [1]
EspCheckSendData         0x800'4f97      0x94  Code  Gb  my_esp.o [1]
EspHandleAnswer          0x800'46f1     0x3c0  Code  Gb  my_esp.o [1]
EspHandleMain            0x800'4ab9     0x19a  Code  Gb  my_esp.o [1]
EspPostCommand           0x800'4c61     0x27e  Code  Gb  my_esp.o [1]
EspReinit                0x800'42a5      0xb4  Code  Gb  my_esp.o [1]
FLASH_Clear              0x800'7311      0x38  Code  Gb  my_stm32f4.o [1]
FLASH_ClearFlag          0x800'8749       0x6  Code  Gb  stm32f4xx_flash.o [1]
FLASH_EraseSector        0x800'85ff      0x6a  Code  Gb  stm32f4xx_flash.o [1]
FLASH_Lock               0x800'85f1       0xe  Code  Gb  stm32f4xx_flash.o [1]
FLASH_OB_Launch          0x800'873d       0xc  Code  Gb  stm32f4xx_flash.o [1]
FLASH_OB_Lock            0x800'871f       0xc  Code  Gb  stm32f4xx_flash.o [1]
FLASH_OB_RDPConfig       0x800'872b      0x12  Code  Gb  stm32f4xx_flash.o [1]
FLASH_OB_Unlock          0x800'870d      0x12  Code  Gb  stm32f4xx_flash.o [1]
FLASH_ProgramByte        0x800'86d9      0x34  Code  Gb  stm32f4xx_flash.o [1]
FLASH_ProgramHalfWord    0x800'86a1      0x38  Code  Gb  stm32f4xx_flash.o [1]
FLASH_ProgramWord        0x800'8669      0x38  Code  Gb  stm32f4xx_flash.o [1]
FLASH_SetReadProtection
                         0x800'72c1      0x40  Code  Gb  my_stm32f4.o [1]
FLASH_Test               0x800'7561      0x16  Code  Gb  my_stm32f4.o [1]
FLASH_Unlock             0x800'85d9      0x18  Code  Gb  stm32f4xx_flash.o [1]
FLASH_WaitForLastOperation
                         0x800'874f      0x88  Code  Gb  stm32f4xx_flash.o [1]
FLASH_Write              0x800'7349      0x3e  Code  Gb  my_stm32f4.o [1]
FLASH_Write2             0x800'7387      0x7e  Code  Gb  my_stm32f4.o [1]
FindNamedData            0x800'68d3      0x10  Code  Gb  my_stm32.o [1]
FindNamedIdxData         0x800'68a7      0x2c  Code  Gb  my_stm32.o [1]
FindShortStr             0x800'5759      0x54  Code  Gb  my_lib.o [1]
FixMemAlloc              0x800'5221      0x18  Code  Gb  my_lib.o [1]
GPIO_Init                0x800'75fd      0x7c  Code  Gb  stm32f4xx_gpio.o [1]
GPIO_PinAFConfig         0x800'7683      0x26  Code  Gb  stm32f4xx_gpio.o [1]
GPIO_WriteBit            0x800'7679       0xa  Code  Gb  stm32f4xx_gpio.o [1]
GetCfgParams             0x800'6209       0xe  Code  Gb  my_stm32.o [1]
GetCharPos               0x800'583f      0x18  Code  Gb  my_lib.o [1]
GetFieldLength           0x800'7a01      0x60  Code  Gb  r_vap3.o [1]
GetFixMemAllocSize       0x800'5239       0x8  Code  Gb  my_lib.o [1]
GetInIPParamNoDef        0x800'5a27      0x46  Code  Gb  my_lib.o [1]
GetInIntParamNoDef       0x800'59d9      0x48  Code  Gb  my_lib.o [1]
GetInParam               0x800'59c1      0x12  Code  Gb  my_lib.o [1]
GetInParamEx             0x800'5949      0x78  Code  Gb  my_lib.o [1]
GetShortStr              0x800'57b3      0x22  Code  Gb  my_lib.o [1]
GetShortStrZ             0x800'57db      0x1c  Code  Gb  my_lib.o [1]
GetStartCounter          0x800'7299      0x14  Code  Gb  my_stm32f4.o [1]
GetSysBlock              0x800'6a1f      0x3e  Code  Gb  my_stm32.o [1]
GetTimeStamp             0x800'6f4d      0x18  Code  Gb  my_stm32f4.o [1]
GetVTORLength            0x800'6969      0x6e  Code  Gb  my_stm32.o [1]
HWMain_ExtCommandsProcess
                         0x800'98bd      0x4e  Code  Gb  wt401nc_conf.o [1]
HWMain_Init              0x800'9749      0x46  Code  Gb  wt401nc_conf.o [1]
HWMain_Process           0x800'990b      0x84  Code  Gb  wt401nc_conf.o [1]
HandleInCall             0x800'89d9      0x38  Code  Gb  my_simcom.o [1]
HardFault_Handler        0x800'af8b       0x2  Code  Gb  stm32f4xx_it.o [1]
HashBlock(void *, unsigned int, unsigned int)
                         0x800'76a9      0x36  Code  Gb  r_vap3.o [1]
Hex2IntDef               0x800'561b      0x3a  Code  Gb  my_lib.o [1]
HexStr2Bin               0x800'5403      0x40  Code  Gb  my_lib.o [1]
IWDG_Enable              0x800'7e8d       0xa  Code  Gb  stm32f4xx_iwdg.o [1]
IWDG_ReloadCounter       0x800'7e83       0xa  Code  Gb  stm32f4xx_iwdg.o [1]
IWDG_SetPrescaler        0x800'7e77       0x6  Code  Gb  stm32f4xx_iwdg.o [1]
IWDG_SetReload           0x800'7e7d       0x6  Code  Gb  stm32f4xx_iwdg.o [1]
IWDG_WriteAccessCmd      0x800'7e71       0x6  Code  Gb  stm32f4xx_iwdg.o [1]
IncStartCounter          0x800'7275      0x24  Code  Gb  my_stm32f4.o [1]
InitBackup              0x2001'00f7       0x1  Data  Gb  my_stm32f4.o [1]
InitCfgBlock             0x800'6a8f      0x30  Code  Gb  my_stm32.o [1]
InitNamedData            0x800'6941       0x4  Code  Gb  my_stm32.o [1]
Int2Hex                  0x800'533f      0x2e  Code  Gb  my_lib.o [1]
Int2HexZ                 0x800'536d      0x3a  Code  Gb  my_lib.o [1]
Int2Str                  0x800'5561      0x5e  Code  Gb  my_lib.o [1]
Int2StrDig               0x800'550f      0x52  Code  Gb  my_lib.o [1]
Int2StrDigZ              0x800'55bf       0xa  Code  Gb  my_lib.o [1]
Int2StrZ                 0x800'55c9       0x8  Code  Gb  my_lib.o [1]
Int2TextIPZ              0x800'5655      0x8a  Code  Gb  my_lib.o [1]
IsExtAscii               0x800'54e7      0x1e  Code  Gb  my_lib.o [1]
IsTimeOut                0x800'5251       0xc  Code  Gb  my_lib.o [1]
IsTimeOutEx              0x800'525d      0x12  Code  Gb  my_lib.o [1]
LD_2                     0x800'9d3c      0x14  Data  Gb  wt401nc_conf.o [1]
LogHelloText             0x800'978f      0xdc  Code  Gb  wt401nc_conf.o [1]
LogLinkDisconnect        0x800'99a5      0x10  Code  Gb  wt401nc_conf.o [1]
MHandler_Call            0x800'5cf7      0x12  Code  Gb  my_lib.o [1]
MHandler_Setup           0x800'5cf1       0x6  Code  Gb  my_lib.o [1]
MakeStr                  0x800'58d3      0x24  Code  Gb  my_lib.o [1]
MaxInt                   0x800'5505       0xa  Code  Gb  my_lib.o [1]
MemClear                 0x800'526f       0xa  Code  Gb  my_lib.o [1]
MemCopy                  0x800'5279      0x34  Code  Gb  my_lib.o [1]
MemManage_Handler        0x800'af8d       0x2  Code  Gb  stm32f4xx_it.o [1]
MyCBuf_CheckCount        0x800'5d6b       0xe  Code  Gb  my_lib.o [1]
MyCBuf_Clear             0x800'5d39       0xa  Code  Gb  my_lib.o [1]
MyCBuf_Init              0x800'5d13      0x26  Code  Gb  my_lib.o [1]
MyCBuf_MoveTo            0x800'6105      0xb4  Code  Gb  my_lib.o [1]
MyCBuf_Read              0x800'5f27      0x78  Code  Gb  my_lib.o [1]
MyCBuf_ReadCount         0x800'5d43      0x10  Code  Gb  my_lib.o [1]
MyCBuf_ReadFmt           0x800'5f9f     0x162  Code  Gb  my_lib.o [1]
MyCBuf_Write             0x800'5e0d       0x4  Code  Gb  my_lib.o [1]
MyCBuf_WriteCount        0x800'5d53      0x18  Code  Gb  my_lib.o [1]
MyCBuf_WriteEx           0x800'5d81      0x8c  Code  Gb  my_lib.o [1]
MyCBuf_WriteHexEx        0x800'5e91      0x4a  Code  Gb  my_lib.o [1]
MyCBuf_WriteIPEx         0x800'5edb      0x16  Code  Gb  my_lib.o [1]
MyCBuf_WriteIntEx        0x800'5e77      0x1a  Code  Gb  my_lib.o [1]
MyCBuf_WriteText         0x800'5e15       0x4  Code  Gb  my_lib.o [1]
MyCBuf_WriteTxtEx        0x800'5e1f      0x58  Code  Gb  my_lib.o [1]
MyCBuf_WriteW            0x800'5e11       0x4  Code  Gb  my_lib.o [1]
MyCircLBuf_Clear         0x800'61ed       0xc  Code  Gb  my_lib.o [1]
MyCircLBuf_Init          0x800'61c9      0x24  Code  Gb  my_lib.o [1]
MyOUT_Init               0x800'6237      0x2a  Code  Gb  my_stm32.o [1]
MyPS_Init                0x800'5bf9      0x34  Code  Gb  my_lib.o [1]
MyPS_Process             0x800'5c7d      0x74  Code  Gb  my_lib.o [1]
MyPS_Setup               0x800'5c2d      0x50  Code  Gb  my_lib.o [1]
MySys_Init               0x800'6d95     0x144  Code  Gb  my_stm32f4.o [1]
MyUARTAfterWrite         0x800'6265       0x4  Code  Gb  my_stm32.o [1]
MyUARTBeforeRead         0x800'6261       0x4  Code  Gb  my_stm32.o [1]
MyUART_DMA_TX_IRQHandler
                         0x800'7211      0x38  Code  Gb  my_stm32f4.o [1]
MyUART_InitEx            0x800'6269      0x5c  Code  Gb  my_stm32.o [1]
MyUART_Initialize        0x800'6f99     0x17c  Code  Gb  my_stm32f4.o [1]
MyUART_StartSend         0x800'7117      0xf4  Code  Gb  my_stm32f4.o [1]
MyUART_UpdateReceivePos
                         0x800'7249      0x24  Code  Gb  my_stm32f4.o [1]
NMI_Handler              0x800'af89       0x2  Code  Gb  stm32f4xx_it.o [1]
NVIC_Init                0x800'7db3      0x5a  Code  Gb  misc.o [1]
NVIC_PriorityGroupConfig
                         0x800'7da9       0xa  Code  Gb  misc.o [1]
NVIC_SetVectorTable      0x800'7e0d       0xc  Code  Gb  misc.o [1]
OUTSet                   0x800'621d       0x8  Code  Gb  my_stm32.o [1]
PIN_Config               0x800'6f65      0x34  Code  Gb  my_stm32f4.o [1]
PIN_Set                  0x800'6217       0x6  Code  Gb  my_stm32.o [1]
PWR_BackupAccessCmd      0x800'7ea5       0x6  Code  Gb  stm32f4xx_pwr.o [1]
PWR_BackupRegulatorCmd   0x800'7eab       0x6  Code  Gb  stm32f4xx_pwr.o [1]
PWR_GetFlagStatus        0x800'7eb1      0x10  Code  Gb  stm32f4xx_pwr.o [1]
PakNameIdx               0x800'62e1      0x68  Code  Gb  my_stm32.o [1]
PendSV_Handler           0x800'af97       0x2  Code  Gb  stm32f4xx_it.o [1]
PortWriteSMSHeader       0x800'8a49      0xac  Code  Gb  my_simcom.o [1]
PortWriteText            0x800'8a11      0x32  Code  Gb  my_simcom.o [1]
PostBCTextAnswer         0x800'96a1       0xa  Code  Gb  wt401nc_conf.o [1]
PostCommand              0x800'8b79     0x284  Code  Gb  my_simcom.o [1]
PostLogHex               0x800'5b41      0x24  Code  Gb  my_lib.o [1]
PostLogHexStr            0x800'5b65      0x94  Code  Gb  my_lib.o [1]
PostLogInt               0x800'5acf      0x6c  Code  Gb  my_lib.o [1]
PostLogMessage           0x800'5a75       0xe  Code  Gb  my_lib.o [1]
PostLogMsg               0x800'5a95      0x3a  Code  Gb  my_lib.o [1]
PostLogText              0x800'5a83      0x12  Code  Gb  my_lib.o [1]
RCC_AHB1PeriphClockCmd   0x800'7cd1      0x14  Code  Gb  stm32f4xx_rcc.o [1]
RCC_AHB2PeriphClockCmd   0x800'7ce5      0x14  Code  Gb  stm32f4xx_rcc.o [1]
RCC_APB1PeriphClockCmd   0x800'7cf9      0x14  Code  Gb  stm32f4xx_rcc.o [1]
RCC_APB1PeriphResetCmd   0x800'7d21      0x14  Code  Gb  stm32f4xx_rcc.o [1]
RCC_APB2PeriphClockCmd   0x800'7d0d      0x14  Code  Gb  stm32f4xx_rcc.o [1]
RCC_APB2PeriphResetCmd   0x800'7d35      0x14  Code  Gb  stm32f4xx_rcc.o [1]
RCC_ClearFlag            0x800'7d6b       0xc  Code  Gb  stm32f4xx_rcc.o [1]
RCC_GetClocksFreq        0x800'7c55      0x7c  Code  Gb  stm32f4xx_rcc.o [1]
RCC_GetFlagStatus        0x800'7d49      0x22  Code  Gb  stm32f4xx_rcc.o [1]
RNG_Cmd                  0x800'7e35      0x18  Code  Gb  stm32f4xx_rng.o [1]
RNG_GetFlagStatus        0x800'7e53      0x10  Code  Gb  stm32f4xx_rng.o [1]
RNG_GetRandomNumber      0x800'7e4d       0x6  Code  Gb  stm32f4xx_rng.o [1]
RTC_ByteToBcd2           0x800'814b      0x22  Code  Lc  stm32f4xx_rtc.o [1]
RTC_EnterInitMode        0x800'7ecd      0x36  Code  Gb  stm32f4xx_rtc.o [1]
RTC_GetDate              0x800'80b3      0x60  Code  Gb  stm32f4xx_rtc.o [1]
RTC_GetTime              0x800'7fcf      0x5e  Code  Gb  stm32f4xx_rtc.o [1]
RTC_Initialize           0x800'6ed9      0x54  Code  Gb  my_stm32f4.o [1]
RTC_ReadBackupRegister   0x800'8131      0x1a  Code  Gb  stm32f4xx_rtc.o [1]
RTC_SetDate              0x800'802d      0x86  Code  Gb  stm32f4xx_rtc.o [1]
RTC_SetTime              0x800'7f41      0x8e  Code  Gb  stm32f4xx_rtc.o [1]
RTC_WaitForSynchro       0x800'7f03      0x36  Code  Gb  stm32f4xx_rtc.o [1]
RTC_WriteBackupRegister
                         0x800'8113      0x1e  Code  Gb  stm32f4xx_rtc.o [1]
RTCtl_ExecBinCommands    0x800'9361     0x15c  Code  Gb  my_rtctl.o [1]
RTCtl_ExecCommands       0x800'9553      0xba  Code  Gb  my_rtctl.o [1]
RTCtl_ExecTextCommands   0x800'9269      0x8c  Code  Gb  my_rtctl.o [1]
RTCtl_Init               0x800'9615      0x1a  Code  Gb  my_rtctl.o [1]
RTCtl_OutTextCommands    0x800'9301      0x20  Code  Gb  my_rtctl.o [1]
ReadCfgBlock             0x800'6b85      0xca  Code  Gb  my_stm32.o [1]
ReadJamParams            0x800'8b49      0x1e  Code  Gb  my_simcom.o [1]
ReadLink                 0x800'9875      0x40  Code  Gb  wt401nc_conf.o [1]
ReadUIntVar              0x800'68e3      0x34  Code  Gb  my_stm32.o [1]
ReduceUInt               0x800'7acf      0x24  Code  Gb  r_vap3.o [1]
Region$$Table$$Base      0x800'aedc             --   Gb  - Linker created -
Region$$Table$$Limit     0x800'af00             --   Gb  - Linker created -
STD_CPROV_ARRAY          0x800'a764     0x100  Data  Gb  my_simcom.o [1]
SVC_Handler              0x800'af93       0x2  Code  Gb  stm32f4xx_it.o [1]
SetActiveFlags           0x800'4441       0x8  Code  Gb  my_esp.o [1]
SetAnyGrpFlags           0x800'43dd      0x5c  Code  Gb  my_esp.o [1]
SetCfgBlock              0x800'6a81       0xe  Code  Gb  my_stm32.o [1]
SetDisconnFlags          0x800'4439       0x8  Code  Gb  my_esp.o [1]
SetFieldLength           0x800'7a93      0x30  Code  Gb  r_vap3.o [1]
SetFieldLengthEx         0x800'7a61      0x32  Code  Gb  r_vap3.o [1]
SetWDGStart              0x800'5241       0x8  Code  Gb  my_lib.o [1]
SetupDisconnTicks        0x800'4399      0x1e  Code  Gb  my_esp.o [1]
SimCom_PostSMSBuffer     0x800'8f07      0x54  Code  Gb  my_simcom.o [1]
SimCom_SendSMS           0x800'8f5b      0x3e  Code  Gb  my_simcom.o [1]
StdLinkConnected         0x800'998f       0x8  Code  Gb  wt401nc_conf.o [1]
StdLinkDisconnected      0x800'9997       0x6  Code  Gb  wt401nc_conf.o [1]
StdPostLogMessage        0x800'969d       0x4  Code  Gb  wt401nc_conf.o [1]
Str2IntDef               0x800'55d9      0x42  Code  Gb  my_lib.o [1]
StrLength                0x800'5881      0x12  Code  Gb  my_lib.o [1]
StrLengthEx              0x800'5893      0x28  Code  Gb  my_lib.o [1]
SubstrComp               0x800'52ed      0x14  Code  Gb  my_lib.o [1]
SubstrCompare            0x800'52ad      0x3a  Code  Gb  my_lib.o [1]
SysTick_Handler          0x800'9645       0xc  Code  Gb  wt401nc_conf.o [1]
SystemInit               0x800'a985      0xea  Code  Gb  system_stm32f4xx.o [1]
TCHATCommand             0x800'9077      0x28  Code  Gb  my_simcom.o [1]
TCHAppChange             0x800'a243      0x14  Code  Gb  my_stdcmdprocs.o [1]
TCHBusTest               0x800'99b5      0x1e  Code  Gb  wt401nc_conf.o [1]
TCHDeleteNamedData       0x800'a177      0x28  Code  Gb  my_stdcmdprocs.o [1]
TCHDeviceID              0x800'9de3      0x24  Code  Gb  my_stdcmdprocs.o [1]
TCHEspCommand            0x800'5039      0x36  Code  Gb  my_esp.o [1]
TCHEspReset              0x800'507d      0x3e  Code  Gb  my_esp.o [1]
TCHFlashClear            0x800'9e71      0x1e  Code  Gb  my_stdcmdprocs.o [1]
TCHFlashCopy             0x800'9fc7      0x34  Code  Gb  my_stdcmdprocs.o [1]
TCHFlashRead             0x800'9f5b      0x3e  Code  Gb  my_stdcmdprocs.o [1]
TCHFlashWrite            0x800'9ebf      0x40  Code  Gb  my_stdcmdprocs.o [1]
TCHGsmMode               0x800'8fa1      0x4a  Code  Gb  my_simcom.o [1]
TCHJampTo                0x800'a281      0x1a  Code  Gb  my_stdcmdprocs.o [1]
TCHMCUID                 0x800'9d79      0x24  Code  Gb  my_stdcmdprocs.o [1]
TCHMCULock               0x800'9e1b       0x2  Code  Gb  my_stdcmdprocs.o [1]
TCHMCUReset              0x800'9e1f      0x2c  Code  Gb  my_stdcmdprocs.o [1]
TCHMemClear              0x800'96ab      0x20  Code  Gb  wt401nc_conf.o [1]
TCHReadNamedData         0x800'a0d7      0x54  Code  Gb  my_stdcmdprocs.o [1]
TCHSIMCard               0x800'9019      0x5e  Code  Gb  my_simcom.o [1]
TCHSIMOff                0x800'90b1      0x22  Code  Gb  my_simcom.o [1]
TCHSIMReset              0x800'90d3      0x2e  Code  Gb  my_simcom.o [1]
TCHSendSMS               0x800'9101      0x44  Code  Gb  my_simcom.o [1]
TCHSwitchSIMCard         0x800'8ff1      0x28  Code  Gb  my_simcom.o [1]
TCHTimeStamp             0x800'9a29      0x86  Code  Gb  wt401nc_conf.o [1]
TCHWiFiBaudRate          0x800'99dd      0x48  Code  Gb  wt401nc_conf.o [1]
TCHWiFiMode              0x800'50bd      0x34  Code  Gb  my_esp.o [1]
TCHWiFiNetAcc            0x800'510d      0x34  Code  Gb  my_esp.o [1]
TCHWlTest                0x800'96cd      0x7c  Code  Gb  wt401nc_conf.o [1]
TCHWriteNamedData        0x800'a043      0x48  Code  Gb  my_stdcmdprocs.o [1]
TCOutText                0x800'9321       0xa  Code  Gb  my_rtctl.o [1]
TCOutUInt                0x800'932b      0x36  Code  Gb  my_rtctl.o [1]
TICKS                   0x2001'00dc       0x4  Data  Gb  wt401nc_main.o [1]
TXTCMD_HANDLERS          0x800'aa90      0xe8  Data  Gb  wt401nc_main.o [1]
TXTCMD_NAMES             0x800'a864     0x120  Data  Gb  wt401nc_main.o [1]
TestNoLinkFlag           0x800'43b7      0x26  Code  Gb  my_esp.o [1]
TextIP2Int               0x800'56ed      0x66  Code  Gb  my_lib.o [1]
TrimRight                0x800'592b      0x1e  Code  Gb  my_lib.o [1]
UART_BUS                 0x800'ab78      0x70  Data  Gb  wt401nc_conf.o [1]
UART_ESP                 0x800'abe8      0x70  Data  Gb  wt401nc_conf.o [1]
USART_ClearFlag          0x800'8391       0x2  Code  Gb  stm32f4xx_usart.o [1]
USART_Cmd                0x800'831d      0x14  Code  Gb  stm32f4xx_usart.o [1]
USART_DMACmd             0x800'834f      0x10  Code  Gb  stm32f4xx_usart.o [1]
USART_DeInit             0x800'818d      0xc8  Code  Gb  stm32f4xx_usart.o [1]
USART_HalfDuplexCmd      0x800'8337      0x12  Code  Gb  stm32f4xx_usart.o [1]
USART_ITConfig           0x800'835f      0x32  Code  Gb  stm32f4xx_usart.o [1]
USART_Init               0x800'8255      0xa4  Code  Gb  stm32f4xx_usart.o [1]
UnCodeAddr               0x800'6a5d      0x24  Code  Gb  my_stm32.o [1]
UsageFault_Handler       0x800'af91       0x2  Code  Gb  stm32f4xx_it.o [1]
VAPBuildFrame            0x800'76ed      0xb4  Code  Gb  r_vap3.o [1]
VAPFrameHdrSize          0x800'76df       0xe  Code  Gb  r_vap3.o [1]
VAPParseFrame            0x800'77a1     0x13a  Code  Gb  r_vap3.o [1]
VTORLength               0x800'69dd       0x6  Code  Gb  my_stm32.o [1]
VTOR_Setup               0x800'7505      0x1c  Code  Gb  my_stm32f4.o [1]
WT401nc_Init             0x800'9ab1      0xda  Code  Gb  wt401nc_conf.o [1]
WT401nc_Process          0x800'9b8b      0x22  Code  Gb  wt401nc_conf.o [1]
WasInitBackup            0x800'726d       0x8  Code  Gb  my_stm32f4.o [1]
WasWDGStart              0x800'5249       0x8  Code  Gb  my_lib.o [1]
Win1251ToUCS2Str         0x800'544f      0x98  Code  Gb  my_lib.o [1]
WriteNamedData           0x800'67b1      0x10  Code  Gb  my_stm32.o [1]
WriteNamedIdxData        0x800'6779      0x2a  Code  Gb  my_stm32.o [1]
WriteUIntVar             0x800'6917      0x2a  Code  Gb  my_stm32.o [1]
_DeleteNamedData         0x800'635f      0xb4  Code  Gb  my_stm32.o [1]
_FindNamedData           0x800'67c1      0xe6  Code  Gb  my_stm32.o [1]
_PostLogMessage          0x800'9661      0x3c  Code  Gb  wt401nc_conf.o [1]
_WriteNamedData          0x800'6431     0x342  Code  Gb  my_stm32.o [1]
__aeabi_memclr           0x800'7589            Code  Gb  ABImemclr.o [4]
__aeabi_memclr4          0x800'75c9            Code  Gb  ABImemclr4.o [4]
__aeabi_memcpy           0x800'8895            Code  Gb  ABImemcpy.o [4]
__aeabi_memcpy4          0x800'88b5            Code  Gb  ABImemcpy.o [4]
__aeabi_memcpy8          0x800'88b5            Code  Gb  ABImemcpy.o [4]
__cmain                  0x800'af31            Code  Gb  cmain.o [4]
__exit                   0x800'af65      0x14  Code  Gb  exit.o [5]
__iar_Memset4_word       0x800'8861            Code  Gb  ABImemset48.o [4]
__iar_Memset8_word       0x800'8861            Code  Gb  ABImemset48.o [4]
__iar_Memset_word        0x800'8801            Code  Gb  ABImemset.o [4]
__iar_copy_init3         0x800'75cf      0x2e  Code  Gb  copy_init3.o [4]
__iar_data_init3         0x800'ae91      0x28  Code  Gb  data_init.o [4]
__iar_debug_exceptions   0x800'885e       0x1  Data  Gb  unwind_debug.o [5]
__iar_init_vfp           0x800'aeb9            Code  Gb  fpinit_M.o [3]
__iar_program_start      0x800'af99            Code  Gb  cstartup_M.o [4]
__iar_zero_init3         0x800'758f      0x3a  Code  Gb  zero_init3.o [4]
__low_level_init         0x800'af4f       0x4  Code  Gb  low_level_init.o [2]
__vector_table           0x800'0000            Data  Gb  startup_stm32f427_437xx.o [1]
_call_main               0x800'af3d            Code  Gb  cmain.o [4]
_exit                    0x800'af59            Code  Gb  cexit.o [4]
_main                    0x800'af4b            Code  Gb  cmain.o [4]
base64ShTbl              0x800'7c50       0x4  Data  Lc  r_vap3.o [1]
crc32eth                 0x800'893d      0x34  Code  Gb  r_crc32.o [1]
crctab                   0x800'a2d4     0x400  Data  Lc  r_crc32.o [1]
exit                     0x800'af53       0x4  Code  Gb  exit.o [2]
gAppAddress             0x2001'00c4       0x4  Data  Gb  my_stm32.o [1]
gBkpMemAllocPos         0x2000'000c       0x4  Data  Gb  my_stm32f4.o [1]
gCBuffer                0x2001'008c       0x4  Data  Gb  wt401nc_conf.o [1]
gCfgAddress             0x2001'00cc       0x4  Data  Gb  my_stm32.o [1]
gCfgLength              0x2001'00d0       0x4  Data  Gb  my_stm32.o [1]
gESP                    0x2001'00f0       0x4  Data  Gb  wt401nc_main.o [1]
gFixMemAllocBuffer      0x2000'0040  0x1'0000  Data  Gb  wt401nc_main.o [1]
gFixMemAllocPos         0x2001'00d8       0x4  Data  Gb  my_lib.o [1]
gGNSS                   0x2001'00ac      0x18  Data  Gb  wt401nc_main.o [1]
gHWMain                 0x2001'0040      0x3c  Data  Gb  wt401nc_conf.o [1]
gLED2                   0x2001'007c       0x4  Data  Gb  wt401nc_conf.o [1]
gLogLinkA               0x2001'00a4       0x4  Data  Gb  wt401nc_conf.o [1]
gLogLinkB               0x2001'00a8       0x4  Data  Gb  wt401nc_conf.o [1]
gMsgCounter             0x2001'0088       0x4  Data  Gb  wt401nc_conf.o [1]
gOUT1                   0x2001'0080       0x4  Data  Gb  wt401nc_conf.o [1]
gOUT2                   0x2001'0084       0x4  Data  Gb  wt401nc_conf.o [1]
gPostLogMessageFunc     0x2001'00d4       0x4  Data  Gb  my_lib.o [1]
gRTC                    0x2001'00f4       0x2  Data  Gb  wt401nc_main.o [1]
gRTCTL                  0x2001'00e0       0x4  Data  Gb  wt401nc_main.o [1]
gUART_BUS               0x2001'00e4       0x4  Data  Gb  wt401nc_main.o [1]
gUART_ESP               0x2001'00ec       0x4  Data  Gb  wt401nc_main.o [1]
gUART_GNSS              0x2001'00e8       0x4  Data  Gb  wt401nc_main.o [1]
gVTORLength             0x2001'00c8       0x4  Data  Gb  my_stm32.o [1]
gWDGStart               0x2001'00f6       0x1  Data  Gb  my_lib.o [1]
gWLinkA                 0x2001'0090       0x4  Data  Gb  wt401nc_conf.o [1]
gWLinkB                 0x2001'0094       0x4  Data  Gb  wt401nc_conf.o [1]
gWLinkC                 0x2001'0098       0x4  Data  Gb  wt401nc_conf.o [1]
gWLinkD                 0x2001'009c       0x4  Data  Gb  wt401nc_conf.o [1]
gWLinkE                 0x2001'00a0       0x4  Data  Gb  wt401nc_conf.o [1]
main                     0x800'af01      0x1a  Code  Gb  wt401nc_main.o [1]
memcmp                   0x800'8971            Code  Gb  memcmp.o [4]
rRTC_mng::init()         0x800'af21       0xc  Code  Gb  r_rtc.o [1]
rRTC_mng::process()      0x800'af2d       0x2  Code  Gb  r_rtc.o [1]
random32                 0x800'7405      0x10  Code  Gb  my_stm32f4.o [1]


[1] = C:\Users\Usver\Desktop\myCM4\HOUSEWELL\wt401nc\_out_\obj
[2] = dl7M_tln.a
[3] = m7M_tls.a
[4] = rt7M_tl.a
[5] = shb_l.a

  26'153 bytes of readonly  code memory
   2'783 bytes of readonly  data memory
  78'072 bytes of readwrite data memory

Errors: none
Warnings: none
